{
  "_format": "hh-sol-artifact-1",
  "contractName": "CheeseChain",
  "sourceName": "contracts/CheeseChain.sol",
  "abi": [
    {
      "anonymous": false,
      "inputs": [
        {
          "indexed": true,
          "internalType": "uint256",
          "name": "_lotId",
          "type": "uint256"
        },
        {
          "indexed": false,
          "internalType": "uint256",
          "name": "_timeStamp",
          "type": "uint256"
        }
      ],
      "name": "LotAdded",
      "type": "event"
    },
    {
      "anonymous": false,
      "inputs": [
        {
          "indexed": true,
          "internalType": "uint256",
          "name": "_stepId",
          "type": "uint256"
        },
        {
          "indexed": false,
          "internalType": "uint256",
          "name": "_timeStamp",
          "type": "uint256"
        }
      ],
      "name": "StepAdded",
      "type": "event"
    },
    {
      "inputs": [
        {
          "internalType": "uint256",
          "name": "lotNumber",
          "type": "uint256"
        },
        {
          "internalType": "bool",
          "name": "result",
          "type": "bool"
        }
      ],
      "name": "addLabResult",
      "outputs": [],
      "stateMutability": "nonpayable",
      "type": "function"
    },
    {
      "inputs": [],
      "name": "addLot",
      "outputs": [],
      "stateMutability": "nonpayable",
      "type": "function"
    },
    {
      "inputs": [
        {
          "internalType": "uint256",
          "name": "lotNumber",
          "type": "uint256"
        }
      ],
      "name": "addStep",
      "outputs": [],
      "stateMutability": "nonpayable",
      "type": "function"
    },
    {
      "inputs": [
        {
          "internalType": "uint256",
          "name": "",
          "type": "uint256"
        }
      ],
      "name": "lots",
      "outputs": [
        {
          "components": [
            {
              "internalType": "bool",
              "name": "result",
              "type": "bool"
            },
            {
              "internalType": "uint256",
              "name": "timestamp",
              "type": "uint256"
            }
          ],
          "internalType": "struct CheeseChain.TestResult",
          "name": "testResult",
          "type": "tuple"
        },
        {
          "internalType": "uint256",
          "name": "lastStep",
          "type": "uint256"
        },
        {
          "internalType": "uint256",
          "name": "timeStamp",
          "type": "uint256"
        }
      ],
      "stateMutability": "view",
      "type": "function"
    },
    {
      "inputs": [
        {
          "internalType": "uint256",
          "name": "",
          "type": "uint256"
        }
      ],
      "name": "steps",
      "outputs": [
        {
          "internalType": "address",
          "name": "owner",
          "type": "address"
        },
        {
          "internalType": "uint256",
          "name": "previousStep",
          "type": "uint256"
        },
        {
          "internalType": "uint256",
          "name": "timeStamp",
          "type": "uint256"
        }
      ],
      "stateMutability": "view",
      "type": "function"
    },
    {
      "inputs": [],
      "name": "totalLots",
      "outputs": [
        {
          "internalType": "uint256",
          "name": "",
          "type": "uint256"
        }
      ],
      "stateMutability": "view",
      "type": "function"
    },
    {
      "inputs": [],
      "name": "totalSteps",
      "outputs": [
        {
          "internalType": "uint256",
          "name": "",
          "type": "uint256"
        }
      ],
      "stateMutability": "view",
      "type": "function"
    }
  ],
  "bytecode": "0x608060405234801561001057600080fd5b506103ee806100206000396000f3fe608060405234801561001057600080fd5b506004361061007d5760003560e01c80637217e0b91161005b5780637217e0b9146100bc5780639df181281461011b578063e797034214610123578063f1648e841461016b57600080fd5b80631d1d119714610082578063360f277b146100975780636931b3ae146100b3575b600080fd5b610095610090366004610349565b6101dd565b005b6100a060015481565b6040519081526020015b60405180910390f35b6100a060005481565b6100f66100ca366004610349565b60026020819052600091825260409091208054600182015491909201546001600160a01b039092169183565b604080516001600160a01b0390941684526020840192909252908201526060016100aa565b61009561029d565b610095610131366004610361565b604080518082018252911515825242602080840191825260009485526003905292209051815460ff19169015151781559051600190910155565b6101b3610179366004610349565b6003602081815260009283526040928390208351808501909452805460ff1615158452600181015491840191909152600281015491015483565b604080518451151581526020948501519481019490945283019190915260608201526080016100aa565b60016000808282546101ef9190610394565b909155505060408051606081018252338152600083815260036020818152848320600290810180548387019081524287890181815287548852848652898820985189546001600160a01b0319166001600160a01b039091161789559151600189015590519690920195909555835493879052918152928290559251928352917fec445c04d22149c0897018b599bfbffbbcf13b30a4da88d37e30ee6df86d6b2491015b60405180910390a250565b60018060008282546102af9190610394565b90915550506040805180820182526000808252602080830182905283516060810185528381528082018381524282870181815260018054875260038087529689902094518051865460ff191690151517865586015185820155925160028501555192909401919091555493519182529192917f0bed61055f62b96d21f771dedadfcf299cb70edf954dcd0c73c73e5ef16655e59101610292565b60006020828403121561035a578081fd5b5035919050565b60008060408385031215610373578081fd5b8235915060208301358015158114610389578182fd5b809150509250929050565b600082198211156103b357634e487b7160e01b81526011600452602481fd5b50019056fea2646970667358221220b1c6f4aaf8db8888e240305149e71c5c84d41ced7d15b61005ab7d66d57ed46964736f6c63430008040033",
  "linkReferences": {},
  "deployedLinkReferences": {}
}