{
  "contracts/CheeseChain.sol": {
    "CheeseChain": {
      "abi": [
        {
          "anonymous": false,
          "inputs": [
            {
              "indexed": true,
              "internalType": "uint256",
              "name": "_lotId",
              "type": "uint256"
            },
            {
              "indexed": false,
              "internalType": "uint256",
              "name": "_timeStamp",
              "type": "uint256"
            }
          ],
          "name": "LotAdded",
          "type": "event"
        },
        {
          "anonymous": false,
          "inputs": [
            {
              "indexed": true,
              "internalType": "uint256",
              "name": "_stepId",
              "type": "uint256"
            },
            {
              "indexed": false,
              "internalType": "uint256",
              "name": "_timeStamp",
              "type": "uint256"
            }
          ],
          "name": "StepAdded",
          "type": "event"
        },
        {
          "inputs": [
            {
              "internalType": "uint256",
              "name": "lotNumber",
              "type": "uint256"
            },
            {
              "internalType": "bool",
              "name": "result",
              "type": "bool"
            }
          ],
          "name": "addLabResult",
          "outputs": [],
          "stateMutability": "nonpayable",
          "type": "function"
        },
        {
          "inputs": [],
          "name": "addLot",
          "outputs": [],
          "stateMutability": "nonpayable",
          "type": "function"
        },
        {
          "inputs": [
            {
              "internalType": "uint256",
              "name": "lotNumber",
              "type": "uint256"
            }
          ],
          "name": "addStep",
          "outputs": [],
          "stateMutability": "nonpayable",
          "type": "function"
        },
        {
          "inputs": [
            {
              "internalType": "uint256",
              "name": "",
              "type": "uint256"
            }
          ],
          "name": "lots",
          "outputs": [
            {
              "components": [
                {
                  "internalType": "bool",
                  "name": "result",
                  "type": "bool"
                },
                {
                  "internalType": "uint256",
                  "name": "timestamp",
                  "type": "uint256"
                }
              ],
              "internalType": "struct CheeseChain.TestResult",
              "name": "testResult",
              "type": "tuple"
            },
            {
              "internalType": "uint256",
              "name": "lastStep",
              "type": "uint256"
            },
            {
              "internalType": "uint256",
              "name": "timeStamp",
              "type": "uint256"
            }
          ],
          "stateMutability": "view",
          "type": "function"
        },
        {
          "inputs": [
            {
              "internalType": "uint256",
              "name": "",
              "type": "uint256"
            }
          ],
          "name": "steps",
          "outputs": [
            {
              "internalType": "address",
              "name": "owner",
              "type": "address"
            },
            {
              "internalType": "uint256",
              "name": "previousStep",
              "type": "uint256"
            },
            {
              "internalType": "uint256",
              "name": "timeStamp",
              "type": "uint256"
            }
          ],
          "stateMutability": "view",
          "type": "function"
        },
        {
          "inputs": [],
          "name": "totalLots",
          "outputs": [
            {
              "internalType": "uint256",
              "name": "",
              "type": "uint256"
            }
          ],
          "stateMutability": "view",
          "type": "function"
        },
        {
          "inputs": [],
          "name": "totalSteps",
          "outputs": [
            {
              "internalType": "uint256",
              "name": "",
              "type": "uint256"
            }
          ],
          "stateMutability": "view",
          "type": "function"
        }
      ],
      "evm": {
        "bytecode": {
          "linkReferences": {},
          "object": "608060405234801561001057600080fd5b506103ee806100206000396000f3fe608060405234801561001057600080fd5b506004361061007d5760003560e01c80637217e0b91161005b5780637217e0b9146100bc5780639df181281461011b578063e797034214610123578063f1648e841461016b57600080fd5b80631d1d119714610082578063360f277b146100975780636931b3ae146100b3575b600080fd5b610095610090366004610349565b6101dd565b005b6100a060015481565b6040519081526020015b60405180910390f35b6100a060005481565b6100f66100ca366004610349565b60026020819052600091825260409091208054600182015491909201546001600160a01b039092169183565b604080516001600160a01b0390941684526020840192909252908201526060016100aa565b61009561029d565b610095610131366004610361565b604080518082018252911515825242602080840191825260009485526003905292209051815460ff19169015151781559051600190910155565b6101b3610179366004610349565b6003602081815260009283526040928390208351808501909452805460ff1615158452600181015491840191909152600281015491015483565b604080518451151581526020948501519481019490945283019190915260608201526080016100aa565b60016000808282546101ef9190610394565b909155505060408051606081018252338152600083815260036020818152848320600290810180548387019081524287890181815287548852848652898820985189546001600160a01b0319166001600160a01b039091161789559151600189015590519690920195909555835493879052918152928290559251928352917fec445c04d22149c0897018b599bfbffbbcf13b30a4da88d37e30ee6df86d6b2491015b60405180910390a250565b60018060008282546102af9190610394565b90915550506040805180820182526000808252602080830182905283516060810185528381528082018381524282870181815260018054875260038087529689902094518051865460ff191690151517865586015185820155925160028501555192909401919091555493519182529192917f0bed61055f62b96d21f771dedadfcf299cb70edf954dcd0c73c73e5ef16655e59101610292565b60006020828403121561035a578081fd5b5035919050565b60008060408385031215610373578081fd5b8235915060208301358015158114610389578182fd5b809150509250929050565b600082198211156103b357634e487b7160e01b81526011600452602481fd5b50019056fea2646970667358221220b1c6f4aaf8db8888e240305149e71c5c84d41ced7d15b61005ab7d66d57ed46964736f6c63430008040033",
          "opcodes": "PUSH1 0x80 PUSH1 0x40 MSTORE CALLVALUE DUP1 ISZERO PUSH2 0x10 JUMPI PUSH1 0x0 DUP1 REVERT JUMPDEST POP PUSH2 0x3EE DUP1 PUSH2 0x20 PUSH1 0x0 CODECOPY PUSH1 0x0 RETURN INVALID PUSH1 0x80 PUSH1 0x40 MSTORE CALLVALUE DUP1 ISZERO PUSH2 0x10 JUMPI PUSH1 0x0 DUP1 REVERT JUMPDEST POP PUSH1 0x4 CALLDATASIZE LT PUSH2 0x7D JUMPI PUSH1 0x0 CALLDATALOAD PUSH1 0xE0 SHR DUP1 PUSH4 0x7217E0B9 GT PUSH2 0x5B JUMPI DUP1 PUSH4 0x7217E0B9 EQ PUSH2 0xBC JUMPI DUP1 PUSH4 0x9DF18128 EQ PUSH2 0x11B JUMPI DUP1 PUSH4 0xE7970342 EQ PUSH2 0x123 JUMPI DUP1 PUSH4 0xF1648E84 EQ PUSH2 0x16B JUMPI PUSH1 0x0 DUP1 REVERT JUMPDEST DUP1 PUSH4 0x1D1D1197 EQ PUSH2 0x82 JUMPI DUP1 PUSH4 0x360F277B EQ PUSH2 0x97 JUMPI DUP1 PUSH4 0x6931B3AE EQ PUSH2 0xB3 JUMPI JUMPDEST PUSH1 0x0 DUP1 REVERT JUMPDEST PUSH2 0x95 PUSH2 0x90 CALLDATASIZE PUSH1 0x4 PUSH2 0x349 JUMP JUMPDEST PUSH2 0x1DD JUMP JUMPDEST STOP JUMPDEST PUSH2 0xA0 PUSH1 0x1 SLOAD DUP2 JUMP JUMPDEST PUSH1 0x40 MLOAD SWAP1 DUP2 MSTORE PUSH1 0x20 ADD JUMPDEST PUSH1 0x40 MLOAD DUP1 SWAP2 SUB SWAP1 RETURN JUMPDEST PUSH2 0xA0 PUSH1 0x0 SLOAD DUP2 JUMP JUMPDEST PUSH2 0xF6 PUSH2 0xCA CALLDATASIZE PUSH1 0x4 PUSH2 0x349 JUMP JUMPDEST PUSH1 0x2 PUSH1 0x20 DUP2 SWAP1 MSTORE PUSH1 0x0 SWAP2 DUP3 MSTORE PUSH1 0x40 SWAP1 SWAP2 KECCAK256 DUP1 SLOAD PUSH1 0x1 DUP3 ADD SLOAD SWAP2 SWAP1 SWAP3 ADD SLOAD PUSH1 0x1 PUSH1 0x1 PUSH1 0xA0 SHL SUB SWAP1 SWAP3 AND SWAP2 DUP4 JUMP JUMPDEST PUSH1 0x40 DUP1 MLOAD PUSH1 0x1 PUSH1 0x1 PUSH1 0xA0 SHL SUB SWAP1 SWAP5 AND DUP5 MSTORE PUSH1 0x20 DUP5 ADD SWAP3 SWAP1 SWAP3 MSTORE SWAP1 DUP3 ADD MSTORE PUSH1 0x60 ADD PUSH2 0xAA JUMP JUMPDEST PUSH2 0x95 PUSH2 0x29D JUMP JUMPDEST PUSH2 0x95 PUSH2 0x131 CALLDATASIZE PUSH1 0x4 PUSH2 0x361 JUMP JUMPDEST PUSH1 0x40 DUP1 MLOAD DUP1 DUP3 ADD DUP3 MSTORE SWAP2 ISZERO ISZERO DUP3 MSTORE TIMESTAMP PUSH1 0x20 DUP1 DUP5 ADD SWAP2 DUP3 MSTORE PUSH1 0x0 SWAP5 DUP6 MSTORE PUSH1 0x3 SWAP1 MSTORE SWAP3 KECCAK256 SWAP1 MLOAD DUP2 SLOAD PUSH1 0xFF NOT AND SWAP1 ISZERO ISZERO OR DUP2 SSTORE SWAP1 MLOAD PUSH1 0x1 SWAP1 SWAP2 ADD SSTORE JUMP JUMPDEST PUSH2 0x1B3 PUSH2 0x179 CALLDATASIZE PUSH1 0x4 PUSH2 0x349 JUMP JUMPDEST PUSH1 0x3 PUSH1 0x20 DUP2 DUP2 MSTORE PUSH1 0x0 SWAP3 DUP4 MSTORE PUSH1 0x40 SWAP3 DUP4 SWAP1 KECCAK256 DUP4 MLOAD DUP1 DUP6 ADD SWAP1 SWAP5 MSTORE DUP1 SLOAD PUSH1 0xFF AND ISZERO ISZERO DUP5 MSTORE PUSH1 0x1 DUP2 ADD SLOAD SWAP2 DUP5 ADD SWAP2 SWAP1 SWAP2 MSTORE PUSH1 0x2 DUP2 ADD SLOAD SWAP2 ADD SLOAD DUP4 JUMP JUMPDEST PUSH1 0x40 DUP1 MLOAD DUP5 MLOAD ISZERO ISZERO DUP2 MSTORE PUSH1 0x20 SWAP5 DUP6 ADD MLOAD SWAP5 DUP2 ADD SWAP5 SWAP1 SWAP5 MSTORE DUP4 ADD SWAP2 SWAP1 SWAP2 MSTORE PUSH1 0x60 DUP3 ADD MSTORE PUSH1 0x80 ADD PUSH2 0xAA JUMP JUMPDEST PUSH1 0x1 PUSH1 0x0 DUP1 DUP3 DUP3 SLOAD PUSH2 0x1EF SWAP2 SWAP1 PUSH2 0x394 JUMP JUMPDEST SWAP1 SWAP2 SSTORE POP POP PUSH1 0x40 DUP1 MLOAD PUSH1 0x60 DUP2 ADD DUP3 MSTORE CALLER DUP2 MSTORE PUSH1 0x0 DUP4 DUP2 MSTORE PUSH1 0x3 PUSH1 0x20 DUP2 DUP2 MSTORE DUP5 DUP4 KECCAK256 PUSH1 0x2 SWAP1 DUP2 ADD DUP1 SLOAD DUP4 DUP8 ADD SWAP1 DUP2 MSTORE TIMESTAMP DUP8 DUP10 ADD DUP2 DUP2 MSTORE DUP8 SLOAD DUP9 MSTORE DUP5 DUP7 MSTORE DUP10 DUP9 KECCAK256 SWAP9 MLOAD DUP10 SLOAD PUSH1 0x1 PUSH1 0x1 PUSH1 0xA0 SHL SUB NOT AND PUSH1 0x1 PUSH1 0x1 PUSH1 0xA0 SHL SUB SWAP1 SWAP2 AND OR DUP10 SSTORE SWAP2 MLOAD PUSH1 0x1 DUP10 ADD SSTORE SWAP1 MLOAD SWAP7 SWAP1 SWAP3 ADD SWAP6 SWAP1 SWAP6 SSTORE DUP4 SLOAD SWAP4 DUP8 SWAP1 MSTORE SWAP2 DUP2 MSTORE SWAP3 DUP3 SWAP1 SSTORE SWAP3 MLOAD SWAP3 DUP4 MSTORE SWAP2 PUSH32 0xEC445C04D22149C0897018B599BFBFFBBCF13B30A4DA88D37E30EE6DF86D6B24 SWAP2 ADD JUMPDEST PUSH1 0x40 MLOAD DUP1 SWAP2 SUB SWAP1 LOG2 POP JUMP JUMPDEST PUSH1 0x1 DUP1 PUSH1 0x0 DUP3 DUP3 SLOAD PUSH2 0x2AF SWAP2 SWAP1 PUSH2 0x394 JUMP JUMPDEST SWAP1 SWAP2 SSTORE POP POP PUSH1 0x40 DUP1 MLOAD DUP1 DUP3 ADD DUP3 MSTORE PUSH1 0x0 DUP1 DUP3 MSTORE PUSH1 0x20 DUP1 DUP4 ADD DUP3 SWAP1 MSTORE DUP4 MLOAD PUSH1 0x60 DUP2 ADD DUP6 MSTORE DUP4 DUP2 MSTORE DUP1 DUP3 ADD DUP4 DUP2 MSTORE TIMESTAMP DUP3 DUP8 ADD DUP2 DUP2 MSTORE PUSH1 0x1 DUP1 SLOAD DUP8 MSTORE PUSH1 0x3 DUP1 DUP8 MSTORE SWAP7 DUP10 SWAP1 KECCAK256 SWAP5 MLOAD DUP1 MLOAD DUP7 SLOAD PUSH1 0xFF NOT AND SWAP1 ISZERO ISZERO OR DUP7 SSTORE DUP7 ADD MLOAD DUP6 DUP3 ADD SSTORE SWAP3 MLOAD PUSH1 0x2 DUP6 ADD SSTORE MLOAD SWAP3 SWAP1 SWAP5 ADD SWAP2 SWAP1 SWAP2 SSTORE SLOAD SWAP4 MLOAD SWAP2 DUP3 MSTORE SWAP2 SWAP3 SWAP2 PUSH32 0xBED61055F62B96D21F771DEDADFCF299CB70EDF954DCD0C73C73E5EF16655E5 SWAP2 ADD PUSH2 0x292 JUMP JUMPDEST PUSH1 0x0 PUSH1 0x20 DUP3 DUP5 SUB SLT ISZERO PUSH2 0x35A JUMPI DUP1 DUP2 REVERT JUMPDEST POP CALLDATALOAD SWAP2 SWAP1 POP JUMP JUMPDEST PUSH1 0x0 DUP1 PUSH1 0x40 DUP4 DUP6 SUB SLT ISZERO PUSH2 0x373 JUMPI DUP1 DUP2 REVERT JUMPDEST DUP3 CALLDATALOAD SWAP2 POP PUSH1 0x20 DUP4 ADD CALLDATALOAD DUP1 ISZERO ISZERO DUP2 EQ PUSH2 0x389 JUMPI DUP2 DUP3 REVERT JUMPDEST DUP1 SWAP2 POP POP SWAP3 POP SWAP3 SWAP1 POP JUMP JUMPDEST PUSH1 0x0 DUP3 NOT DUP3 GT ISZERO PUSH2 0x3B3 JUMPI PUSH4 0x4E487B71 PUSH1 0xE0 SHL DUP2 MSTORE PUSH1 0x11 PUSH1 0x4 MSTORE PUSH1 0x24 DUP2 REVERT JUMPDEST POP ADD SWAP1 JUMP INVALID LOG2 PUSH5 0x6970667358 0x22 SLT KECCAK256 0xB1 0xC6 DELEGATECALL 0xAA 0xF8 0xDB DUP9 DUP9 0xE2 BLOCKHASH ADDRESS MLOAD 0x49 0xE7 SHR 0x5C DUP5 0xD4 SHR 0xED PUSH30 0x15B61005AB7D66D57ED46964736F6C634300080400330000000000000000 "
        },
        "methodIdentifiers": {
          "addLabResult(uint256,bool)": "e7970342",
          "addLot()": "9df18128",
          "addStep(uint256)": "1d1d1197",
          "lots(uint256)": "f1648e84",
          "steps(uint256)": "7217e0b9",
          "totalLots()": "360f277b",
          "totalSteps()": "6931b3ae"
        }
      }
    }
  }
}