{
  "contracts/CheeseChainV2.sol": {
    "CheeseChainV2": {
      "abi": [
        {
          "inputs": [],
          "stateMutability": "nonpayable",
          "type": "constructor"
        },
        {
          "anonymous": false,
          "inputs": [
            {
              "indexed": true,
              "internalType": "uint256",
              "name": "_lotId",
              "type": "uint256"
            },
            {
              "indexed": true,
              "internalType": "bool",
              "name": "_result",
              "type": "bool"
            },
            {
              "indexed": true,
              "internalType": "uint256",
              "name": "_timestamp",
              "type": "uint256"
            }
          ],
          "name": "LabResultAdded",
          "type": "event"
        },
        {
          "anonymous": false,
          "inputs": [
            {
              "indexed": true,
              "internalType": "uint256",
              "name": "_lotId",
              "type": "uint256"
            },
            {
              "indexed": false,
              "internalType": "uint256",
              "name": "_timestamp",
              "type": "uint256"
            }
          ],
          "name": "LotAdded",
          "type": "event"
        },
        {
          "anonymous": false,
          "inputs": [
            {
              "indexed": true,
              "internalType": "uint256",
              "name": "_milkBatchId",
              "type": "uint256"
            },
            {
              "indexed": false,
              "internalType": "uint256",
              "name": "_timestamp",
              "type": "uint256"
            }
          ],
          "name": "NewMilkBatch",
          "type": "event"
        },
        {
          "anonymous": false,
          "inputs": [
            {
              "components": [
                {
                  "internalType": "string",
                  "name": "name",
                  "type": "string"
                },
                {
                  "internalType": "enum CheeseChainV2.Role",
                  "name": "role",
                  "type": "uint8"
                },
                {
                  "internalType": "address",
                  "name": "owner",
                  "type": "address"
                }
              ],
              "indexed": false,
              "internalType": "struct CheeseChainV2.Participant",
              "name": "participant",
              "type": "tuple"
            }
          ],
          "name": "ParticipantAdded",
          "type": "event"
        },
        {
          "anonymous": false,
          "inputs": [
            {
              "components": [
                {
                  "internalType": "string",
                  "name": "name",
                  "type": "string"
                },
                {
                  "internalType": "enum CheeseChainV2.Role",
                  "name": "role",
                  "type": "uint8"
                },
                {
                  "internalType": "address",
                  "name": "owner",
                  "type": "address"
                }
              ],
              "indexed": false,
              "internalType": "struct CheeseChainV2.Participant",
              "name": "participant",
              "type": "tuple"
            }
          ],
          "name": "RoleChanged",
          "type": "event"
        },
        {
          "anonymous": false,
          "inputs": [
            {
              "indexed": true,
              "internalType": "uint256",
              "name": "_stepId",
              "type": "uint256"
            },
            {
              "indexed": false,
              "internalType": "uint256",
              "name": "_timestamp",
              "type": "uint256"
            }
          ],
          "name": "StepAdded",
          "type": "event"
        },
        {
          "inputs": [
            {
              "internalType": "uint256",
              "name": "lotNumber",
              "type": "uint256"
            },
            {
              "internalType": "bool",
              "name": "result",
              "type": "bool"
            }
          ],
          "name": "addLabResult",
          "outputs": [],
          "stateMutability": "nonpayable",
          "type": "function"
        },
        {
          "inputs": [
            {
              "internalType": "uint256[]",
              "name": "milkBatchIds",
              "type": "uint256[]"
            }
          ],
          "name": "addLot",
          "outputs": [],
          "stateMutability": "nonpayable",
          "type": "function"
        },
        {
          "inputs": [
            {
              "components": [
                {
                  "internalType": "string",
                  "name": "latitude",
                  "type": "string"
                },
                {
                  "internalType": "string",
                  "name": "longitude",
                  "type": "string"
                }
              ],
              "internalType": "struct CheeseChainV2.Coordinates",
              "name": "coordinates",
              "type": "tuple"
            }
          ],
          "name": "addMilkBatch",
          "outputs": [],
          "stateMutability": "nonpayable",
          "type": "function"
        },
        {
          "inputs": [
            {
              "components": [
                {
                  "internalType": "string",
                  "name": "name",
                  "type": "string"
                },
                {
                  "internalType": "enum CheeseChainV2.Role",
                  "name": "role",
                  "type": "uint8"
                },
                {
                  "internalType": "address",
                  "name": "owner",
                  "type": "address"
                }
              ],
              "internalType": "struct CheeseChainV2.Participant",
              "name": "participant",
              "type": "tuple"
            }
          ],
          "name": "addParticipant",
          "outputs": [],
          "stateMutability": "nonpayable",
          "type": "function"
        },
        {
          "inputs": [
            {
              "internalType": "uint256",
              "name": "lotNumber",
              "type": "uint256"
            },
            {
              "components": [
                {
                  "internalType": "string",
                  "name": "latitude",
                  "type": "string"
                },
                {
                  "internalType": "string",
                  "name": "longitude",
                  "type": "string"
                }
              ],
              "internalType": "struct CheeseChainV2.Coordinates",
              "name": "coordinates",
              "type": "tuple"
            }
          ],
          "name": "addStep",
          "outputs": [],
          "stateMutability": "nonpayable",
          "type": "function"
        },
        {
          "inputs": [],
          "name": "administrator",
          "outputs": [
            {
              "internalType": "address",
              "name": "",
              "type": "address"
            }
          ],
          "stateMutability": "view",
          "type": "function"
        },
        {
          "inputs": [
            {
              "internalType": "address",
              "name": "_address",
              "type": "address"
            },
            {
              "internalType": "enum CheeseChainV2.Role",
              "name": "_newRole",
              "type": "uint8"
            }
          ],
          "name": "changeParticipantRole",
          "outputs": [],
          "stateMutability": "nonpayable",
          "type": "function"
        },
        {
          "inputs": [
            {
              "internalType": "address",
              "name": "_address",
              "type": "address"
            }
          ],
          "name": "isAdministrator",
          "outputs": [
            {
              "internalType": "bool",
              "name": "",
              "type": "bool"
            }
          ],
          "stateMutability": "view",
          "type": "function"
        },
        {
          "inputs": [
            {
              "internalType": "address",
              "name": "_address",
              "type": "address"
            }
          ],
          "name": "isBasicParticipant",
          "outputs": [
            {
              "internalType": "bool",
              "name": "",
              "type": "bool"
            }
          ],
          "stateMutability": "view",
          "type": "function"
        },
        {
          "inputs": [
            {
              "internalType": "address",
              "name": "_address",
              "type": "address"
            }
          ],
          "name": "isLaboratory",
          "outputs": [
            {
              "internalType": "bool",
              "name": "",
              "type": "bool"
            }
          ],
          "stateMutability": "view",
          "type": "function"
        },
        {
          "inputs": [
            {
              "internalType": "address",
              "name": "_address",
              "type": "address"
            }
          ],
          "name": "isMilkProducer",
          "outputs": [
            {
              "internalType": "bool",
              "name": "",
              "type": "bool"
            }
          ],
          "stateMutability": "view",
          "type": "function"
        },
        {
          "inputs": [],
          "name": "laboratory",
          "outputs": [
            {
              "internalType": "string",
              "name": "name",
              "type": "string"
            },
            {
              "internalType": "enum CheeseChainV2.Role",
              "name": "role",
              "type": "uint8"
            },
            {
              "internalType": "address",
              "name": "owner",
              "type": "address"
            }
          ],
          "stateMutability": "view",
          "type": "function"
        },
        {
          "inputs": [
            {
              "internalType": "uint256",
              "name": "",
              "type": "uint256"
            }
          ],
          "name": "lots",
          "outputs": [
            {
              "components": [
                {
                  "internalType": "bool",
                  "name": "result",
                  "type": "bool"
                },
                {
                  "internalType": "uint256",
                  "name": "timestamp",
                  "type": "uint256"
                }
              ],
              "internalType": "struct CheeseChainV2.TestResult",
              "name": "testResult",
              "type": "tuple"
            },
            {
              "internalType": "uint256",
              "name": "lastStep",
              "type": "uint256"
            },
            {
              "internalType": "uint256",
              "name": "timestamp",
              "type": "uint256"
            }
          ],
          "stateMutability": "view",
          "type": "function"
        },
        {
          "inputs": [
            {
              "internalType": "uint256",
              "name": "",
              "type": "uint256"
            }
          ],
          "name": "milkBatches",
          "outputs": [
            {
              "internalType": "uint256",
              "name": "timestamp",
              "type": "uint256"
            },
            {
              "internalType": "address",
              "name": "producer",
              "type": "address"
            },
            {
              "components": [
                {
                  "internalType": "string",
                  "name": "latitude",
                  "type": "string"
                },
                {
                  "internalType": "string",
                  "name": "longitude",
                  "type": "string"
                }
              ],
              "internalType": "struct CheeseChainV2.Coordinates",
              "name": "coordinates",
              "type": "tuple"
            }
          ],
          "stateMutability": "view",
          "type": "function"
        },
        {
          "inputs": [
            {
              "internalType": "address",
              "name": "",
              "type": "address"
            }
          ],
          "name": "participants",
          "outputs": [
            {
              "internalType": "string",
              "name": "name",
              "type": "string"
            },
            {
              "internalType": "enum CheeseChainV2.Role",
              "name": "role",
              "type": "uint8"
            },
            {
              "internalType": "address",
              "name": "owner",
              "type": "address"
            }
          ],
          "stateMutability": "view",
          "type": "function"
        },
        {
          "inputs": [
            {
              "internalType": "address",
              "name": "_address",
              "type": "address"
            }
          ],
          "name": "removeParticipant",
          "outputs": [],
          "stateMutability": "nonpayable",
          "type": "function"
        },
        {
          "inputs": [
            {
              "internalType": "uint256",
              "name": "",
              "type": "uint256"
            }
          ],
          "name": "steps",
          "outputs": [
            {
              "internalType": "address",
              "name": "owner",
              "type": "address"
            },
            {
              "internalType": "uint256",
              "name": "previousStep",
              "type": "uint256"
            },
            {
              "internalType": "uint256",
              "name": "timestamp",
              "type": "uint256"
            },
            {
              "components": [
                {
                  "internalType": "string",
                  "name": "latitude",
                  "type": "string"
                },
                {
                  "internalType": "string",
                  "name": "longitude",
                  "type": "string"
                }
              ],
              "internalType": "struct CheeseChainV2.Coordinates",
              "name": "coordinates",
              "type": "tuple"
            }
          ],
          "stateMutability": "view",
          "type": "function"
        },
        {
          "inputs": [],
          "name": "totalBatches",
          "outputs": [
            {
              "internalType": "uint256",
              "name": "",
              "type": "uint256"
            }
          ],
          "stateMutability": "view",
          "type": "function"
        },
        {
          "inputs": [],
          "name": "totalLots",
          "outputs": [
            {
              "internalType": "uint256",
              "name": "",
              "type": "uint256"
            }
          ],
          "stateMutability": "view",
          "type": "function"
        },
        {
          "inputs": [],
          "name": "totalSteps",
          "outputs": [
            {
              "internalType": "uint256",
              "name": "",
              "type": "uint256"
            }
          ],
          "stateMutability": "view",
          "type": "function"
        }
      ],
      "evm": {
        "bytecode": {
          "linkReferences": {},
          "object": "608060405234801561001057600080fd5b50600280546001600160a01b03191633179055611bc0806100326000396000f3fe608060405234801561001057600080fd5b506004361061012c5760003560e01c80637217e0b9116100ad578063dfc2e25111610071578063dfc2e2511461028b578063e79703421461029e578063ef8fd516146102b1578063f1648e84146102c4578063f53d0a8e1461033957600080fd5b80637217e0b914610227578063799712661461024a578063bab5e3d514610252578063c0e0453914610265578063cf23b3771461027857600080fd5b80634e266aea116100f45780634e266aea146101cb578063633342fe146101ed578063668a2001146102005780636931b3ae1461021557806369ff6abb1461021e57600080fd5b806309e69ede146101315780630a2eb3011461015c578063277065841461018e5780632a83aada146101a1578063360f277b146101b4575b600080fd5b61014461013f366004611377565b610364565b60405161015393929190611615565b60405180910390f35b61017e61016a366004611377565b6002546001600160a01b0391821691161490565b6040519015158152602001610153565b61017e61019c366004611377565b61041c565b61017e6101af366004611377565b610466565b6101bd60015481565b604051908152602001610153565b6101de6101d93660046114b5565b61046f565b60405161015393929190611840565b61017e6101fb366004611377565b6105c9565b61021361020e366004611377565b6105d2565b005b6101bd60005481565b6101bd60085481565b61023a6102353660046114b5565b610680565b60405161015394939291906115de565b6101446107e3565b610213610260366004611442565b6107f2565b61021361027336600461139a565b610967565b6102136102863660046113d2565b610a74565b61021361029936600461147d565b610d38565b6102136102ac3660046114cd565b610ed4565b6102136102bf3660046114f5565b610fa8565b61030f6102d23660046114b5565b6006602090815260009182526040918290208251808401909352805460ff1615158352600181015491830191909152600281015460039091015483565b60408051845115158152602094850151948101949094528301919091526060820152608001610153565b60025461034c906001600160a01b031681565b6040516001600160a01b039091168152602001610153565b60076020526000908152604090208054819061037f9061191e565b80601f01602080910402602001604051908101604052809291908181526020018280546103ab9061191e565b80156103f85780601f106103cd576101008083540402835291602001916103f8565b820191906000526020600020905b8154815290600101906020018083116103db57829003601f168201915b5050506001909301549192505060ff8116906001600160a01b036101009091041683565b600060025b6001600160a01b03831660009081526007602052604090206001015460ff16600381111561045f57634e487b7160e01b600052602160045260246000fd5b1492915050565b60006001610421565b6009602052600090815260409081902080546001820154835180850190945260028301805492946001600160a01b039092169392829082906104b09061191e565b80601f01602080910402602001604051908101604052809291908181526020018280546104dc9061191e565b80156105295780601f106104fe57610100808354040283529160200191610529565b820191906000526020600020905b81548152906001019060200180831161050c57829003601f168201915b505050505081526020016001820180546105429061191e565b80601f016020809104026020016040519081016040528092919081815260200182805461056e9061191e565b80156105bb5780601f10610590576101008083540402835291602001916105bb565b820191906000526020600020905b81548152906001019060200180831161059e57829003601f168201915b505050505081525050905083565b60006003610421565b6002546001600160a01b031633146106055760405162461bcd60e51b81526004016105fc90611650565b60405180910390fd5b6001600160a01b038082166000908152600760205260409020600101548291610100909104166106475760405162461bcd60e51b81526004016105fc9061169b565b6001600160a01b03821660009081526007602052604081209061066a82826111ae565b5060010180546001600160a81b03191690555050565b6005602052600090815260409081902080546001820154600283015484518086019095526003840180546001600160a01b039094169592949193919291829082906106ca9061191e565b80601f01602080910402602001604051908101604052809291908181526020018280546106f69061191e565b80156107435780601f1061071857610100808354040283529160200191610743565b820191906000526020600020905b81548152906001019060200180831161072657829003601f168201915b5050505050815260200160018201805461075c9061191e565b80601f01602080910402602001604051908101604052809291908181526020018280546107889061191e565b80156107d55780601f106107aa576101008083540402835291602001916107d5565b820191906000526020600020905b8154815290600101906020018083116107b857829003601f168201915b505050505081525050905084565b60038054819061037f9061191e565b6002546001600160a01b031633148061080f575061080f336105c9565b6108765760405162461bcd60e51b815260206004820152603260248201527f546869732066756e6374696f6e206973206f6e6c792063616c6c61626c652062604482015271792061206d696c6b2070726f64756365722160701b60648201526084016105fc565b600160086000828254610889919061186a565b9091555050604080516060810182524281523360208201529081016108ad8361189b565b905260085460009081526009602090815260409182902083518155838201516001820180546001600160a01b0319166001600160a01b0390921691909117905591830151805180519192600285019261090992849201906111eb565b50602082810151805161092292600185019201906111eb565b5050509050506008547f1ed9a7a467facf402d310bfed1dcb9abef3674e796e5ca5d19071da6246ec9084260405161095c91815260200190565b60405180910390a250565b6002546001600160a01b031633146109915760405162461bcd60e51b81526004016105fc90611650565b6001600160a01b038083166000908152600760205260409020600101548391610100909104166109d35760405162461bcd60e51b81526004016105fc9061169b565b6001600160a01b038316600090815260076020526040902060019081018054849260ff1990911690836003811115610a1b57634e487b7160e01b600052602160045260246000fd5b02179055506001600160a01b0383166000908152600760205260409081902090517fff2d2d00dec063c036ff49fb55b1bf52d819c4c61dd7f8805b15f51d1809028491610a6791611794565b60405180910390a1505050565b6002546001600160a01b0316331480610a915750610a9133610466565b610add5760405162461bcd60e51b815260206004820181905260248201527f4d73672e73656e646572206973206e6f74206261736963206f722061646d696e60448201526064016105fc565b818180610b475760405162461bcd60e51b815260206004820152603260248201527f506c656173652070726f76696465206174206c65617374206f6e65206d696c6b604482015271206261746368206964656e7469666965722160701b60648201526084016105fc565b60005b81811015610c0d5760096000848484818110610b7657634e487b7160e01b600052603260045260246000fd5b9050602002013581526020019081526020016000206000015460001415610bfb5760405162461bcd60e51b815260206004820152603360248201527f506c656173652070726f76696465206f6e6c79206578697374696e67206d696c6044820152726b206261746368206964656e7469666965727360681b60648201526084016105fc565b80610c0581611953565b915050610b4a565b506001806000828254610c20919061186a565b92505081905550600060405180604001604052806000151581526020016000815250905060405180608001604052808281526020016000815260200142815260200186868080602002602001604051908101604052809392919081815260200183836020028082843760009201829052509390945250506001805482526006602090815260409283902085518051825460ff19169015151782558201519281019290925584810151600283015591840151600382015560608401518051919350610cf192600485019291019061126f565b509050506001547f0bed61055f62b96d21f771dedadfcf299cb70edf954dcd0c73c73e5ef16655e542604051610d2991815260200190565b60405180910390a25050505050565b6002546001600160a01b03163314610d625760405162461bcd60e51b81526004016105fc90611650565b610d726060820160408301611377565b6001600160a01b038116610dd35760405162461bcd60e51b815260206004820152602260248201527f54686520616464726573732063616e6e6f742062652061203020616464726573604482015261732160f01b60648201526084016105fc565b610de36060830160408401611377565b6001600160a01b0381811660009081526007602052604090206001015461010090041615610e6a5760405162461bcd60e51b815260206004820152602e60248201527f41207061727469636970616e742077697468207468697320616464726573732060448201526d65786973747320616c726561647960901b60648201526084016105fc565b8260076000610e7f6060840160408501611377565b6001600160a01b031681526020810191909152604001600020610ea282826119eb565b9050507fef9377c241485790a66c08be6e52dff1ad726099e0467fb606578787de7941e383604051610a6791906116e9565b6002546001600160a01b0316331480610ef15750610ef13361041c565b610f3d5760405162461bcd60e51b815260206004820152601e60248201527f4d73672e73656e646572206973206e6f74206c6162206f722061646d696e000060448201526064016105fc565b604080518082018252821515808252426020808401828152600088815260069092528582209451855460ff1916901515178555516001909401939093559251909185917ff77d5f9755b6151104d42d1008bf3453a129d0642c72a499f7b38cb68416a6199190a45050565b6002546001600160a01b0316331480610fc55750610fc533610466565b6110115760405162461bcd60e51b815260206004820181905260248201527f4d73672e73656e646572206973206e6f74206261736963206f722061646d696e60448201526064016105fc565b60008281526006602052604090206003015482906110875760405162461bcd60e51b815260206004820152602d60248201527f546865206c6f7420776974682074686520676976656e206e756d62657220646f60448201526c6573206e6f742065786973742160981b60648201526084016105fc565b6001600080828254611099919061186a565b9091555050604080516080810182523381526000858152600660209081529083902060020154908201524291810191909152606081016110d88461189b565b905260008054815260056020908152604091829020835181546001600160a01b0319166001600160a01b039091161781558382015160018201559183015160028301556060830151805180519192600385019261113892849201906111eb565b50602082810151805161115192600185019201906111eb565b505060008054878252600660205260409182902060020181905590519093507fec445c04d22149c0897018b599bfbffbbcf13b30a4da88d37e30ee6df86d6b2492506111a1915042815260200190565b60405180910390a2505050565b5080546111ba9061191e565b6000825580601f106111ca575050565b601f0160209004906000526020600020908101906111e891906112a9565b50565b8280546111f79061191e565b90600052602060002090601f016020900481019282611219576000855561125f565b82601f1061123257805160ff191683800117855561125f565b8280016001018555821561125f579182015b8281111561125f578251825591602001919060010190611244565b5061126b9291506112a9565b5090565b82805482825590600052602060002090810192821561125f579160200282018281111561125f578251825591602001919060010190611244565b5b8082111561126b57600081556001016112aa565b80356112c981611b68565b919050565b80356112c981611b7d565b600082601f8301126112e9578081fd5b813567ffffffffffffffff8082111561130457611304611984565b604051601f8301601f19908116603f0116810190828211818310171561132c5761132c611984565b81604052838152866020858801011115611344578485fd5b8360208701602083013792830160200193909352509392505050565b600060408284031215611371578081fd5b50919050565b600060208284031215611388578081fd5b813561139381611b68565b9392505050565b600080604083850312156113ac578081fd5b82356113b781611b68565b915060208301356113c781611b7d565b809150509250929050565b600080602083850312156113e4578182fd5b823567ffffffffffffffff808211156113fb578384fd5b818501915085601f83011261140e578384fd5b81358181111561141c578485fd5b8660208260051b8501011115611430578485fd5b60209290920196919550909350505050565b600060208284031215611453578081fd5b813567ffffffffffffffff811115611469578182fd5b61147584828501611360565b949350505050565b60006020828403121561148e578081fd5b813567ffffffffffffffff8111156114a4578182fd5b820160608185031215611393578182fd5b6000602082840312156114c6578081fd5b5035919050565b600080604083850312156114df578182fd5b82359150602083013580151581146113c7578182fd5b60008060408385031215611507578182fd5b82359150602083013567ffffffffffffffff811115611524578182fd5b61153085828601611360565b9150509250929050565b6004811061155857634e487b7160e01b600052602160045260246000fd5b9052565b60008151808452815b8181101561158157602081850181015186830182015201611565565b818111156115925782602083870101525b50601f01601f19169290920160200192915050565b60008151604084526115bc604085018261155c565b9050602083015184820360208601526115d5828261155c565b95945050505050565b60018060a01b038516815283602082015282604082015260806060820152600061160b60808301846115a7565b9695505050505050565b606081526000611628606083018661155c565b9050611637602083018561153a565b6001600160a01b03929092166040919091015292915050565b6020808252602b908201527f546869732066756e6374696f6e206973206f6e6c792063616c6c61626c65206260408201526a7920616e2061646d696e2160a81b606082015260800190565b6020808252602e908201527f41207061727469636970616e742077697468207468697320616464726573732060408201526d191bd95cc81b9bdd08195e1a5cdd60921b606082015260800190565b6020815260008235601e19843603018112611702578182fd5b8301803567ffffffffffffffff81111561171a578283fd5b803603851315611728578283fd5b60606020850152806080850152806020830160a08601378260a08286010152611753602086016112ce565b9150611762604085018361153a565b61176e604086016112be565b6001600160a01b03811660608601529150601f01601f19169290920160a0019392505050565b600060208083526060818401528184546117ad8161191e565b80608087015260a06001808416600081146117cf57600181146117e35761180e565b60ff1985168984015260c08901955061180e565b898852868820885b858110156118065781548b82018601529083019088016117eb565b8a0184019650505b508801549450611828925050506040850160ff841661153a565b6001600160a01b03600883901c166060850152611475565b8381526001600160a01b03831660208201526060604082018190526000906115d5908301846115a7565b6000821982111561187d5761187d61196e565b500190565b5b818110156118975760008155600101611883565b5050565b6000604082360312156118ac578081fd5b6040516040810167ffffffffffffffff82821081831117156118d0576118d0611984565b8160405284359150808211156118e4578384fd5b6118f0368387016112d9565b83526020850135915080821115611905578384fd5b50611912368286016112d9565b60208301525092915050565b600181811c9082168061193257607f821691505b6020821081141561137157634e487b7160e01b600052602260045260246000fd5b60006000198214156119675761196761196e565b5060010190565b634e487b7160e01b600052601160045260246000fd5b634e487b7160e01b600052604160045260246000fd5b600081356119a781611b68565b92915050565b600081356119a781611b7d565b600482106119d857634e487b7160e01b600052602160045260246000fd5b60ff1981541660ff831681178255505050565b8135601e198336030181126119ff57600080fd5b8201803567ffffffffffffffff811115611a1857600080fd5b60208136038184011315611a2b57600080fd5b611a35845461191e565b600080601f8511601f841181811715611a545760008981526020902092505b8015611a8257601f870160051c830186881015611a6e5750825b611a80601f870160051c850182611882565b505b508060018114611ab857600094508615611a9f5785848901013594505b600187901b600019600389901b1c198616178955611b0d565b601f198716945082845b86811015611ae3578986018801358255948701946001909101908701611ac2565b5087861015611b025760001960f88960031b161c1987868b0101351681555b5060018760011b0189555b5050505050600184019250611b2c611b268287016119ad565b846119ba565b5050611b63611b3d6040850161199a565b828054610100600160a81b03191660089290921b610100600160a81b0316919091179055565b505050565b6001600160a01b03811681146111e857600080fd5b600481106111e857600080fdfea26469706673582212200921575224427259d148893fe98163949a74cb598524f491e0bf0d5d45c1742564736f6c63430008040033",
          "opcodes": "PUSH1 0x80 PUSH1 0x40 MSTORE CALLVALUE DUP1 ISZERO PUSH2 0x10 JUMPI PUSH1 0x0 DUP1 REVERT JUMPDEST POP PUSH1 0x2 DUP1 SLOAD PUSH1 0x1 PUSH1 0x1 PUSH1 0xA0 SHL SUB NOT AND CALLER OR SWAP1 SSTORE PUSH2 0x1BC0 DUP1 PUSH2 0x32 PUSH1 0x0 CODECOPY PUSH1 0x0 RETURN INVALID PUSH1 0x80 PUSH1 0x40 MSTORE CALLVALUE DUP1 ISZERO PUSH2 0x10 JUMPI PUSH1 0x0 DUP1 REVERT JUMPDEST POP PUSH1 0x4 CALLDATASIZE LT PUSH2 0x12C JUMPI PUSH1 0x0 CALLDATALOAD PUSH1 0xE0 SHR DUP1 PUSH4 0x7217E0B9 GT PUSH2 0xAD JUMPI DUP1 PUSH4 0xDFC2E251 GT PUSH2 0x71 JUMPI DUP1 PUSH4 0xDFC2E251 EQ PUSH2 0x28B JUMPI DUP1 PUSH4 0xE7970342 EQ PUSH2 0x29E JUMPI DUP1 PUSH4 0xEF8FD516 EQ PUSH2 0x2B1 JUMPI DUP1 PUSH4 0xF1648E84 EQ PUSH2 0x2C4 JUMPI DUP1 PUSH4 0xF53D0A8E EQ PUSH2 0x339 JUMPI PUSH1 0x0 DUP1 REVERT JUMPDEST DUP1 PUSH4 0x7217E0B9 EQ PUSH2 0x227 JUMPI DUP1 PUSH4 0x79971266 EQ PUSH2 0x24A JUMPI DUP1 PUSH4 0xBAB5E3D5 EQ PUSH2 0x252 JUMPI DUP1 PUSH4 0xC0E04539 EQ PUSH2 0x265 JUMPI DUP1 PUSH4 0xCF23B377 EQ PUSH2 0x278 JUMPI PUSH1 0x0 DUP1 REVERT JUMPDEST DUP1 PUSH4 0x4E266AEA GT PUSH2 0xF4 JUMPI DUP1 PUSH4 0x4E266AEA EQ PUSH2 0x1CB JUMPI DUP1 PUSH4 0x633342FE EQ PUSH2 0x1ED JUMPI DUP1 PUSH4 0x668A2001 EQ PUSH2 0x200 JUMPI DUP1 PUSH4 0x6931B3AE EQ PUSH2 0x215 JUMPI DUP1 PUSH4 0x69FF6ABB EQ PUSH2 0x21E JUMPI PUSH1 0x0 DUP1 REVERT JUMPDEST DUP1 PUSH4 0x9E69EDE EQ PUSH2 0x131 JUMPI DUP1 PUSH4 0xA2EB301 EQ PUSH2 0x15C JUMPI DUP1 PUSH4 0x27706584 EQ PUSH2 0x18E JUMPI DUP1 PUSH4 0x2A83AADA EQ PUSH2 0x1A1 JUMPI DUP1 PUSH4 0x360F277B EQ PUSH2 0x1B4 JUMPI JUMPDEST PUSH1 0x0 DUP1 REVERT JUMPDEST PUSH2 0x144 PUSH2 0x13F CALLDATASIZE PUSH1 0x4 PUSH2 0x1377 JUMP JUMPDEST PUSH2 0x364 JUMP JUMPDEST PUSH1 0x40 MLOAD PUSH2 0x153 SWAP4 SWAP3 SWAP2 SWAP1 PUSH2 0x1615 JUMP JUMPDEST PUSH1 0x40 MLOAD DUP1 SWAP2 SUB SWAP1 RETURN JUMPDEST PUSH2 0x17E PUSH2 0x16A CALLDATASIZE PUSH1 0x4 PUSH2 0x1377 JUMP JUMPDEST PUSH1 0x2 SLOAD PUSH1 0x1 PUSH1 0x1 PUSH1 0xA0 SHL SUB SWAP2 DUP3 AND SWAP2 AND EQ SWAP1 JUMP JUMPDEST PUSH1 0x40 MLOAD SWAP1 ISZERO ISZERO DUP2 MSTORE PUSH1 0x20 ADD PUSH2 0x153 JUMP JUMPDEST PUSH2 0x17E PUSH2 0x19C CALLDATASIZE PUSH1 0x4 PUSH2 0x1377 JUMP JUMPDEST PUSH2 0x41C JUMP JUMPDEST PUSH2 0x17E PUSH2 0x1AF CALLDATASIZE PUSH1 0x4 PUSH2 0x1377 JUMP JUMPDEST PUSH2 0x466 JUMP JUMPDEST PUSH2 0x1BD PUSH1 0x1 SLOAD DUP2 JUMP JUMPDEST PUSH1 0x40 MLOAD SWAP1 DUP2 MSTORE PUSH1 0x20 ADD PUSH2 0x153 JUMP JUMPDEST PUSH2 0x1DE PUSH2 0x1D9 CALLDATASIZE PUSH1 0x4 PUSH2 0x14B5 JUMP JUMPDEST PUSH2 0x46F JUMP JUMPDEST PUSH1 0x40 MLOAD PUSH2 0x153 SWAP4 SWAP3 SWAP2 SWAP1 PUSH2 0x1840 JUMP JUMPDEST PUSH2 0x17E PUSH2 0x1FB CALLDATASIZE PUSH1 0x4 PUSH2 0x1377 JUMP JUMPDEST PUSH2 0x5C9 JUMP JUMPDEST PUSH2 0x213 PUSH2 0x20E CALLDATASIZE PUSH1 0x4 PUSH2 0x1377 JUMP JUMPDEST PUSH2 0x5D2 JUMP JUMPDEST STOP JUMPDEST PUSH2 0x1BD PUSH1 0x0 SLOAD DUP2 JUMP JUMPDEST PUSH2 0x1BD PUSH1 0x8 SLOAD DUP2 JUMP JUMPDEST PUSH2 0x23A PUSH2 0x235 CALLDATASIZE PUSH1 0x4 PUSH2 0x14B5 JUMP JUMPDEST PUSH2 0x680 JUMP JUMPDEST PUSH1 0x40 MLOAD PUSH2 0x153 SWAP5 SWAP4 SWAP3 SWAP2 SWAP1 PUSH2 0x15DE JUMP JUMPDEST PUSH2 0x144 PUSH2 0x7E3 JUMP JUMPDEST PUSH2 0x213 PUSH2 0x260 CALLDATASIZE PUSH1 0x4 PUSH2 0x1442 JUMP JUMPDEST PUSH2 0x7F2 JUMP JUMPDEST PUSH2 0x213 PUSH2 0x273 CALLDATASIZE PUSH1 0x4 PUSH2 0x139A JUMP JUMPDEST PUSH2 0x967 JUMP JUMPDEST PUSH2 0x213 PUSH2 0x286 CALLDATASIZE PUSH1 0x4 PUSH2 0x13D2 JUMP JUMPDEST PUSH2 0xA74 JUMP JUMPDEST PUSH2 0x213 PUSH2 0x299 CALLDATASIZE PUSH1 0x4 PUSH2 0x147D JUMP JUMPDEST PUSH2 0xD38 JUMP JUMPDEST PUSH2 0x213 PUSH2 0x2AC CALLDATASIZE PUSH1 0x4 PUSH2 0x14CD JUMP JUMPDEST PUSH2 0xED4 JUMP JUMPDEST PUSH2 0x213 PUSH2 0x2BF CALLDATASIZE PUSH1 0x4 PUSH2 0x14F5 JUMP JUMPDEST PUSH2 0xFA8 JUMP JUMPDEST PUSH2 0x30F PUSH2 0x2D2 CALLDATASIZE PUSH1 0x4 PUSH2 0x14B5 JUMP JUMPDEST PUSH1 0x6 PUSH1 0x20 SWAP1 DUP2 MSTORE PUSH1 0x0 SWAP2 DUP3 MSTORE PUSH1 0x40 SWAP2 DUP3 SWAP1 KECCAK256 DUP3 MLOAD DUP1 DUP5 ADD SWAP1 SWAP4 MSTORE DUP1 SLOAD PUSH1 0xFF AND ISZERO ISZERO DUP4 MSTORE PUSH1 0x1 DUP2 ADD SLOAD SWAP2 DUP4 ADD SWAP2 SWAP1 SWAP2 MSTORE PUSH1 0x2 DUP2 ADD SLOAD PUSH1 0x3 SWAP1 SWAP2 ADD SLOAD DUP4 JUMP JUMPDEST PUSH1 0x40 DUP1 MLOAD DUP5 MLOAD ISZERO ISZERO DUP2 MSTORE PUSH1 0x20 SWAP5 DUP6 ADD MLOAD SWAP5 DUP2 ADD SWAP5 SWAP1 SWAP5 MSTORE DUP4 ADD SWAP2 SWAP1 SWAP2 MSTORE PUSH1 0x60 DUP3 ADD MSTORE PUSH1 0x80 ADD PUSH2 0x153 JUMP JUMPDEST PUSH1 0x2 SLOAD PUSH2 0x34C SWAP1 PUSH1 0x1 PUSH1 0x1 PUSH1 0xA0 SHL SUB AND DUP2 JUMP JUMPDEST PUSH1 0x40 MLOAD PUSH1 0x1 PUSH1 0x1 PUSH1 0xA0 SHL SUB SWAP1 SWAP2 AND DUP2 MSTORE PUSH1 0x20 ADD PUSH2 0x153 JUMP JUMPDEST PUSH1 0x7 PUSH1 0x20 MSTORE PUSH1 0x0 SWAP1 DUP2 MSTORE PUSH1 0x40 SWAP1 KECCAK256 DUP1 SLOAD DUP2 SWAP1 PUSH2 0x37F SWAP1 PUSH2 0x191E JUMP JUMPDEST DUP1 PUSH1 0x1F ADD PUSH1 0x20 DUP1 SWAP2 DIV MUL PUSH1 0x20 ADD PUSH1 0x40 MLOAD SWAP1 DUP2 ADD PUSH1 0x40 MSTORE DUP1 SWAP3 SWAP2 SWAP1 DUP2 DUP2 MSTORE PUSH1 0x20 ADD DUP3 DUP1 SLOAD PUSH2 0x3AB SWAP1 PUSH2 0x191E JUMP JUMPDEST DUP1 ISZERO PUSH2 0x3F8 JUMPI DUP1 PUSH1 0x1F LT PUSH2 0x3CD JUMPI PUSH2 0x100 DUP1 DUP4 SLOAD DIV MUL DUP4 MSTORE SWAP2 PUSH1 0x20 ADD SWAP2 PUSH2 0x3F8 JUMP JUMPDEST DUP3 ADD SWAP2 SWAP1 PUSH1 0x0 MSTORE PUSH1 0x20 PUSH1 0x0 KECCAK256 SWAP1 JUMPDEST DUP2 SLOAD DUP2 MSTORE SWAP1 PUSH1 0x1 ADD SWAP1 PUSH1 0x20 ADD DUP1 DUP4 GT PUSH2 0x3DB JUMPI DUP3 SWAP1 SUB PUSH1 0x1F AND DUP3 ADD SWAP2 JUMPDEST POP POP POP PUSH1 0x1 SWAP1 SWAP4 ADD SLOAD SWAP2 SWAP3 POP POP PUSH1 0xFF DUP2 AND SWAP1 PUSH1 0x1 PUSH1 0x1 PUSH1 0xA0 SHL SUB PUSH2 0x100 SWAP1 SWAP2 DIV AND DUP4 JUMP JUMPDEST PUSH1 0x0 PUSH1 0x2 JUMPDEST PUSH1 0x1 PUSH1 0x1 PUSH1 0xA0 SHL SUB DUP4 AND PUSH1 0x0 SWAP1 DUP2 MSTORE PUSH1 0x7 PUSH1 0x20 MSTORE PUSH1 0x40 SWAP1 KECCAK256 PUSH1 0x1 ADD SLOAD PUSH1 0xFF AND PUSH1 0x3 DUP2 GT ISZERO PUSH2 0x45F JUMPI PUSH4 0x4E487B71 PUSH1 0xE0 SHL PUSH1 0x0 MSTORE PUSH1 0x21 PUSH1 0x4 MSTORE PUSH1 0x24 PUSH1 0x0 REVERT JUMPDEST EQ SWAP3 SWAP2 POP POP JUMP JUMPDEST PUSH1 0x0 PUSH1 0x1 PUSH2 0x421 JUMP JUMPDEST PUSH1 0x9 PUSH1 0x20 MSTORE PUSH1 0x0 SWAP1 DUP2 MSTORE PUSH1 0x40 SWAP1 DUP2 SWAP1 KECCAK256 DUP1 SLOAD PUSH1 0x1 DUP3 ADD SLOAD DUP4 MLOAD DUP1 DUP6 ADD SWAP1 SWAP5 MSTORE PUSH1 0x2 DUP4 ADD DUP1 SLOAD SWAP3 SWAP5 PUSH1 0x1 PUSH1 0x1 PUSH1 0xA0 SHL SUB SWAP1 SWAP3 AND SWAP4 SWAP3 DUP3 SWAP1 DUP3 SWAP1 PUSH2 0x4B0 SWAP1 PUSH2 0x191E JUMP JUMPDEST DUP1 PUSH1 0x1F ADD PUSH1 0x20 DUP1 SWAP2 DIV MUL PUSH1 0x20 ADD PUSH1 0x40 MLOAD SWAP1 DUP2 ADD PUSH1 0x40 MSTORE DUP1 SWAP3 SWAP2 SWAP1 DUP2 DUP2 MSTORE PUSH1 0x20 ADD DUP3 DUP1 SLOAD PUSH2 0x4DC SWAP1 PUSH2 0x191E JUMP JUMPDEST DUP1 ISZERO PUSH2 0x529 JUMPI DUP1 PUSH1 0x1F LT PUSH2 0x4FE JUMPI PUSH2 0x100 DUP1 DUP4 SLOAD DIV MUL DUP4 MSTORE SWAP2 PUSH1 0x20 ADD SWAP2 PUSH2 0x529 JUMP JUMPDEST DUP3 ADD SWAP2 SWAP1 PUSH1 0x0 MSTORE PUSH1 0x20 PUSH1 0x0 KECCAK256 SWAP1 JUMPDEST DUP2 SLOAD DUP2 MSTORE SWAP1 PUSH1 0x1 ADD SWAP1 PUSH1 0x20 ADD DUP1 DUP4 GT PUSH2 0x50C JUMPI DUP3 SWAP1 SUB PUSH1 0x1F AND DUP3 ADD SWAP2 JUMPDEST POP POP POP POP POP DUP2 MSTORE PUSH1 0x20 ADD PUSH1 0x1 DUP3 ADD DUP1 SLOAD PUSH2 0x542 SWAP1 PUSH2 0x191E JUMP JUMPDEST DUP1 PUSH1 0x1F ADD PUSH1 0x20 DUP1 SWAP2 DIV MUL PUSH1 0x20 ADD PUSH1 0x40 MLOAD SWAP1 DUP2 ADD PUSH1 0x40 MSTORE DUP1 SWAP3 SWAP2 SWAP1 DUP2 DUP2 MSTORE PUSH1 0x20 ADD DUP3 DUP1 SLOAD PUSH2 0x56E SWAP1 PUSH2 0x191E JUMP JUMPDEST DUP1 ISZERO PUSH2 0x5BB JUMPI DUP1 PUSH1 0x1F LT PUSH2 0x590 JUMPI PUSH2 0x100 DUP1 DUP4 SLOAD DIV MUL DUP4 MSTORE SWAP2 PUSH1 0x20 ADD SWAP2 PUSH2 0x5BB JUMP JUMPDEST DUP3 ADD SWAP2 SWAP1 PUSH1 0x0 MSTORE PUSH1 0x20 PUSH1 0x0 KECCAK256 SWAP1 JUMPDEST DUP2 SLOAD DUP2 MSTORE SWAP1 PUSH1 0x1 ADD SWAP1 PUSH1 0x20 ADD DUP1 DUP4 GT PUSH2 0x59E JUMPI DUP3 SWAP1 SUB PUSH1 0x1F AND DUP3 ADD SWAP2 JUMPDEST POP POP POP POP POP DUP2 MSTORE POP POP SWAP1 POP DUP4 JUMP JUMPDEST PUSH1 0x0 PUSH1 0x3 PUSH2 0x421 JUMP JUMPDEST PUSH1 0x2 SLOAD PUSH1 0x1 PUSH1 0x1 PUSH1 0xA0 SHL SUB AND CALLER EQ PUSH2 0x605 JUMPI PUSH1 0x40 MLOAD PUSH3 0x461BCD PUSH1 0xE5 SHL DUP2 MSTORE PUSH1 0x4 ADD PUSH2 0x5FC SWAP1 PUSH2 0x1650 JUMP JUMPDEST PUSH1 0x40 MLOAD DUP1 SWAP2 SUB SWAP1 REVERT JUMPDEST PUSH1 0x1 PUSH1 0x1 PUSH1 0xA0 SHL SUB DUP1 DUP3 AND PUSH1 0x0 SWAP1 DUP2 MSTORE PUSH1 0x7 PUSH1 0x20 MSTORE PUSH1 0x40 SWAP1 KECCAK256 PUSH1 0x1 ADD SLOAD DUP3 SWAP2 PUSH2 0x100 SWAP1 SWAP2 DIV AND PUSH2 0x647 JUMPI PUSH1 0x40 MLOAD PUSH3 0x461BCD PUSH1 0xE5 SHL DUP2 MSTORE PUSH1 0x4 ADD PUSH2 0x5FC SWAP1 PUSH2 0x169B JUMP JUMPDEST PUSH1 0x1 PUSH1 0x1 PUSH1 0xA0 SHL SUB DUP3 AND PUSH1 0x0 SWAP1 DUP2 MSTORE PUSH1 0x7 PUSH1 0x20 MSTORE PUSH1 0x40 DUP2 KECCAK256 SWAP1 PUSH2 0x66A DUP3 DUP3 PUSH2 0x11AE JUMP JUMPDEST POP PUSH1 0x1 ADD DUP1 SLOAD PUSH1 0x1 PUSH1 0x1 PUSH1 0xA8 SHL SUB NOT AND SWAP1 SSTORE POP POP JUMP JUMPDEST PUSH1 0x5 PUSH1 0x20 MSTORE PUSH1 0x0 SWAP1 DUP2 MSTORE PUSH1 0x40 SWAP1 DUP2 SWAP1 KECCAK256 DUP1 SLOAD PUSH1 0x1 DUP3 ADD SLOAD PUSH1 0x2 DUP4 ADD SLOAD DUP5 MLOAD DUP1 DUP7 ADD SWAP1 SWAP6 MSTORE PUSH1 0x3 DUP5 ADD DUP1 SLOAD PUSH1 0x1 PUSH1 0x1 PUSH1 0xA0 SHL SUB SWAP1 SWAP5 AND SWAP6 SWAP3 SWAP5 SWAP2 SWAP4 SWAP2 SWAP3 SWAP2 DUP3 SWAP1 DUP3 SWAP1 PUSH2 0x6CA SWAP1 PUSH2 0x191E JUMP JUMPDEST DUP1 PUSH1 0x1F ADD PUSH1 0x20 DUP1 SWAP2 DIV MUL PUSH1 0x20 ADD PUSH1 0x40 MLOAD SWAP1 DUP2 ADD PUSH1 0x40 MSTORE DUP1 SWAP3 SWAP2 SWAP1 DUP2 DUP2 MSTORE PUSH1 0x20 ADD DUP3 DUP1 SLOAD PUSH2 0x6F6 SWAP1 PUSH2 0x191E JUMP JUMPDEST DUP1 ISZERO PUSH2 0x743 JUMPI DUP1 PUSH1 0x1F LT PUSH2 0x718 JUMPI PUSH2 0x100 DUP1 DUP4 SLOAD DIV MUL DUP4 MSTORE SWAP2 PUSH1 0x20 ADD SWAP2 PUSH2 0x743 JUMP JUMPDEST DUP3 ADD SWAP2 SWAP1 PUSH1 0x0 MSTORE PUSH1 0x20 PUSH1 0x0 KECCAK256 SWAP1 JUMPDEST DUP2 SLOAD DUP2 MSTORE SWAP1 PUSH1 0x1 ADD SWAP1 PUSH1 0x20 ADD DUP1 DUP4 GT PUSH2 0x726 JUMPI DUP3 SWAP1 SUB PUSH1 0x1F AND DUP3 ADD SWAP2 JUMPDEST POP POP POP POP POP DUP2 MSTORE PUSH1 0x20 ADD PUSH1 0x1 DUP3 ADD DUP1 SLOAD PUSH2 0x75C SWAP1 PUSH2 0x191E JUMP JUMPDEST DUP1 PUSH1 0x1F ADD PUSH1 0x20 DUP1 SWAP2 DIV MUL PUSH1 0x20 ADD PUSH1 0x40 MLOAD SWAP1 DUP2 ADD PUSH1 0x40 MSTORE DUP1 SWAP3 SWAP2 SWAP1 DUP2 DUP2 MSTORE PUSH1 0x20 ADD DUP3 DUP1 SLOAD PUSH2 0x788 SWAP1 PUSH2 0x191E JUMP JUMPDEST DUP1 ISZERO PUSH2 0x7D5 JUMPI DUP1 PUSH1 0x1F LT PUSH2 0x7AA JUMPI PUSH2 0x100 DUP1 DUP4 SLOAD DIV MUL DUP4 MSTORE SWAP2 PUSH1 0x20 ADD SWAP2 PUSH2 0x7D5 JUMP JUMPDEST DUP3 ADD SWAP2 SWAP1 PUSH1 0x0 MSTORE PUSH1 0x20 PUSH1 0x0 KECCAK256 SWAP1 JUMPDEST DUP2 SLOAD DUP2 MSTORE SWAP1 PUSH1 0x1 ADD SWAP1 PUSH1 0x20 ADD DUP1 DUP4 GT PUSH2 0x7B8 JUMPI DUP3 SWAP1 SUB PUSH1 0x1F AND DUP3 ADD SWAP2 JUMPDEST POP POP POP POP POP DUP2 MSTORE POP POP SWAP1 POP DUP5 JUMP JUMPDEST PUSH1 0x3 DUP1 SLOAD DUP2 SWAP1 PUSH2 0x37F SWAP1 PUSH2 0x191E JUMP JUMPDEST PUSH1 0x2 SLOAD PUSH1 0x1 PUSH1 0x1 PUSH1 0xA0 SHL SUB AND CALLER EQ DUP1 PUSH2 0x80F JUMPI POP PUSH2 0x80F CALLER PUSH2 0x5C9 JUMP JUMPDEST PUSH2 0x876 JUMPI PUSH1 0x40 MLOAD PUSH3 0x461BCD PUSH1 0xE5 SHL DUP2 MSTORE PUSH1 0x20 PUSH1 0x4 DUP3 ADD MSTORE PUSH1 0x32 PUSH1 0x24 DUP3 ADD MSTORE PUSH32 0x546869732066756E6374696F6E206973206F6E6C792063616C6C61626C652062 PUSH1 0x44 DUP3 ADD MSTORE PUSH18 0x792061206D696C6B2070726F647563657221 PUSH1 0x70 SHL PUSH1 0x64 DUP3 ADD MSTORE PUSH1 0x84 ADD PUSH2 0x5FC JUMP JUMPDEST PUSH1 0x1 PUSH1 0x8 PUSH1 0x0 DUP3 DUP3 SLOAD PUSH2 0x889 SWAP2 SWAP1 PUSH2 0x186A JUMP JUMPDEST SWAP1 SWAP2 SSTORE POP POP PUSH1 0x40 DUP1 MLOAD PUSH1 0x60 DUP2 ADD DUP3 MSTORE TIMESTAMP DUP2 MSTORE CALLER PUSH1 0x20 DUP3 ADD MSTORE SWAP1 DUP2 ADD PUSH2 0x8AD DUP4 PUSH2 0x189B JUMP JUMPDEST SWAP1 MSTORE PUSH1 0x8 SLOAD PUSH1 0x0 SWAP1 DUP2 MSTORE PUSH1 0x9 PUSH1 0x20 SWAP1 DUP2 MSTORE PUSH1 0x40 SWAP2 DUP3 SWAP1 KECCAK256 DUP4 MLOAD DUP2 SSTORE DUP4 DUP3 ADD MLOAD PUSH1 0x1 DUP3 ADD DUP1 SLOAD PUSH1 0x1 PUSH1 0x1 PUSH1 0xA0 SHL SUB NOT AND PUSH1 0x1 PUSH1 0x1 PUSH1 0xA0 SHL SUB SWAP1 SWAP3 AND SWAP2 SWAP1 SWAP2 OR SWAP1 SSTORE SWAP2 DUP4 ADD MLOAD DUP1 MLOAD DUP1 MLOAD SWAP2 SWAP3 PUSH1 0x2 DUP6 ADD SWAP3 PUSH2 0x909 SWAP3 DUP5 SWAP3 ADD SWAP1 PUSH2 0x11EB JUMP JUMPDEST POP PUSH1 0x20 DUP3 DUP2 ADD MLOAD DUP1 MLOAD PUSH2 0x922 SWAP3 PUSH1 0x1 DUP6 ADD SWAP3 ADD SWAP1 PUSH2 0x11EB JUMP JUMPDEST POP POP POP SWAP1 POP POP PUSH1 0x8 SLOAD PUSH32 0x1ED9A7A467FACF402D310BFED1DCB9ABEF3674E796E5CA5D19071DA6246EC908 TIMESTAMP PUSH1 0x40 MLOAD PUSH2 0x95C SWAP2 DUP2 MSTORE PUSH1 0x20 ADD SWAP1 JUMP JUMPDEST PUSH1 0x40 MLOAD DUP1 SWAP2 SUB SWAP1 LOG2 POP JUMP JUMPDEST PUSH1 0x2 SLOAD PUSH1 0x1 PUSH1 0x1 PUSH1 0xA0 SHL SUB AND CALLER EQ PUSH2 0x991 JUMPI PUSH1 0x40 MLOAD PUSH3 0x461BCD PUSH1 0xE5 SHL DUP2 MSTORE PUSH1 0x4 ADD PUSH2 0x5FC SWAP1 PUSH2 0x1650 JUMP JUMPDEST PUSH1 0x1 PUSH1 0x1 PUSH1 0xA0 SHL SUB DUP1 DUP4 AND PUSH1 0x0 SWAP1 DUP2 MSTORE PUSH1 0x7 PUSH1 0x20 MSTORE PUSH1 0x40 SWAP1 KECCAK256 PUSH1 0x1 ADD SLOAD DUP4 SWAP2 PUSH2 0x100 SWAP1 SWAP2 DIV AND PUSH2 0x9D3 JUMPI PUSH1 0x40 MLOAD PUSH3 0x461BCD PUSH1 0xE5 SHL DUP2 MSTORE PUSH1 0x4 ADD PUSH2 0x5FC SWAP1 PUSH2 0x169B JUMP JUMPDEST PUSH1 0x1 PUSH1 0x1 PUSH1 0xA0 SHL SUB DUP4 AND PUSH1 0x0 SWAP1 DUP2 MSTORE PUSH1 0x7 PUSH1 0x20 MSTORE PUSH1 0x40 SWAP1 KECCAK256 PUSH1 0x1 SWAP1 DUP2 ADD DUP1 SLOAD DUP5 SWAP3 PUSH1 0xFF NOT SWAP1 SWAP2 AND SWAP1 DUP4 PUSH1 0x3 DUP2 GT ISZERO PUSH2 0xA1B JUMPI PUSH4 0x4E487B71 PUSH1 0xE0 SHL PUSH1 0x0 MSTORE PUSH1 0x21 PUSH1 0x4 MSTORE PUSH1 0x24 PUSH1 0x0 REVERT JUMPDEST MUL OR SWAP1 SSTORE POP PUSH1 0x1 PUSH1 0x1 PUSH1 0xA0 SHL SUB DUP4 AND PUSH1 0x0 SWAP1 DUP2 MSTORE PUSH1 0x7 PUSH1 0x20 MSTORE PUSH1 0x40 SWAP1 DUP2 SWAP1 KECCAK256 SWAP1 MLOAD PUSH32 0xFF2D2D00DEC063C036FF49FB55B1BF52D819C4C61DD7F8805B15F51D18090284 SWAP2 PUSH2 0xA67 SWAP2 PUSH2 0x1794 JUMP JUMPDEST PUSH1 0x40 MLOAD DUP1 SWAP2 SUB SWAP1 LOG1 POP POP POP JUMP JUMPDEST PUSH1 0x2 SLOAD PUSH1 0x1 PUSH1 0x1 PUSH1 0xA0 SHL SUB AND CALLER EQ DUP1 PUSH2 0xA91 JUMPI POP PUSH2 0xA91 CALLER PUSH2 0x466 JUMP JUMPDEST PUSH2 0xADD JUMPI PUSH1 0x40 MLOAD PUSH3 0x461BCD PUSH1 0xE5 SHL DUP2 MSTORE PUSH1 0x20 PUSH1 0x4 DUP3 ADD DUP2 SWAP1 MSTORE PUSH1 0x24 DUP3 ADD MSTORE PUSH32 0x4D73672E73656E646572206973206E6F74206261736963206F722061646D696E PUSH1 0x44 DUP3 ADD MSTORE PUSH1 0x64 ADD PUSH2 0x5FC JUMP JUMPDEST DUP2 DUP2 DUP1 PUSH2 0xB47 JUMPI PUSH1 0x40 MLOAD PUSH3 0x461BCD PUSH1 0xE5 SHL DUP2 MSTORE PUSH1 0x20 PUSH1 0x4 DUP3 ADD MSTORE PUSH1 0x32 PUSH1 0x24 DUP3 ADD MSTORE PUSH32 0x506C656173652070726F76696465206174206C65617374206F6E65206D696C6B PUSH1 0x44 DUP3 ADD MSTORE PUSH18 0x206261746368206964656E74696669657221 PUSH1 0x70 SHL PUSH1 0x64 DUP3 ADD MSTORE PUSH1 0x84 ADD PUSH2 0x5FC JUMP JUMPDEST PUSH1 0x0 JUMPDEST DUP2 DUP2 LT ISZERO PUSH2 0xC0D JUMPI PUSH1 0x9 PUSH1 0x0 DUP5 DUP5 DUP5 DUP2 DUP2 LT PUSH2 0xB76 JUMPI PUSH4 0x4E487B71 PUSH1 0xE0 SHL PUSH1 0x0 MSTORE PUSH1 0x32 PUSH1 0x4 MSTORE PUSH1 0x24 PUSH1 0x0 REVERT JUMPDEST SWAP1 POP PUSH1 0x20 MUL ADD CALLDATALOAD DUP2 MSTORE PUSH1 0x20 ADD SWAP1 DUP2 MSTORE PUSH1 0x20 ADD PUSH1 0x0 KECCAK256 PUSH1 0x0 ADD SLOAD PUSH1 0x0 EQ ISZERO PUSH2 0xBFB JUMPI PUSH1 0x40 MLOAD PUSH3 0x461BCD PUSH1 0xE5 SHL DUP2 MSTORE PUSH1 0x20 PUSH1 0x4 DUP3 ADD MSTORE PUSH1 0x33 PUSH1 0x24 DUP3 ADD MSTORE PUSH32 0x506C656173652070726F76696465206F6E6C79206578697374696E67206D696C PUSH1 0x44 DUP3 ADD MSTORE PUSH19 0x6B206261746368206964656E74696669657273 PUSH1 0x68 SHL PUSH1 0x64 DUP3 ADD MSTORE PUSH1 0x84 ADD PUSH2 0x5FC JUMP JUMPDEST DUP1 PUSH2 0xC05 DUP2 PUSH2 0x1953 JUMP JUMPDEST SWAP2 POP POP PUSH2 0xB4A JUMP JUMPDEST POP PUSH1 0x1 DUP1 PUSH1 0x0 DUP3 DUP3 SLOAD PUSH2 0xC20 SWAP2 SWAP1 PUSH2 0x186A JUMP JUMPDEST SWAP3 POP POP DUP2 SWAP1 SSTORE POP PUSH1 0x0 PUSH1 0x40 MLOAD DUP1 PUSH1 0x40 ADD PUSH1 0x40 MSTORE DUP1 PUSH1 0x0 ISZERO ISZERO DUP2 MSTORE PUSH1 0x20 ADD PUSH1 0x0 DUP2 MSTORE POP SWAP1 POP PUSH1 0x40 MLOAD DUP1 PUSH1 0x80 ADD PUSH1 0x40 MSTORE DUP1 DUP3 DUP2 MSTORE PUSH1 0x20 ADD PUSH1 0x0 DUP2 MSTORE PUSH1 0x20 ADD TIMESTAMP DUP2 MSTORE PUSH1 0x20 ADD DUP7 DUP7 DUP1 DUP1 PUSH1 0x20 MUL PUSH1 0x20 ADD PUSH1 0x40 MLOAD SWAP1 DUP2 ADD PUSH1 0x40 MSTORE DUP1 SWAP4 SWAP3 SWAP2 SWAP1 DUP2 DUP2 MSTORE PUSH1 0x20 ADD DUP4 DUP4 PUSH1 0x20 MUL DUP1 DUP3 DUP5 CALLDATACOPY PUSH1 0x0 SWAP3 ADD DUP3 SWAP1 MSTORE POP SWAP4 SWAP1 SWAP5 MSTORE POP POP PUSH1 0x1 DUP1 SLOAD DUP3 MSTORE PUSH1 0x6 PUSH1 0x20 SWAP1 DUP2 MSTORE PUSH1 0x40 SWAP3 DUP4 SWAP1 KECCAK256 DUP6 MLOAD DUP1 MLOAD DUP3 SLOAD PUSH1 0xFF NOT AND SWAP1 ISZERO ISZERO OR DUP3 SSTORE DUP3 ADD MLOAD SWAP3 DUP2 ADD SWAP3 SWAP1 SWAP3 SSTORE DUP5 DUP2 ADD MLOAD PUSH1 0x2 DUP4 ADD SSTORE SWAP2 DUP5 ADD MLOAD PUSH1 0x3 DUP3 ADD SSTORE PUSH1 0x60 DUP5 ADD MLOAD DUP1 MLOAD SWAP2 SWAP4 POP PUSH2 0xCF1 SWAP3 PUSH1 0x4 DUP6 ADD SWAP3 SWAP2 ADD SWAP1 PUSH2 0x126F JUMP JUMPDEST POP SWAP1 POP POP PUSH1 0x1 SLOAD PUSH32 0xBED61055F62B96D21F771DEDADFCF299CB70EDF954DCD0C73C73E5EF16655E5 TIMESTAMP PUSH1 0x40 MLOAD PUSH2 0xD29 SWAP2 DUP2 MSTORE PUSH1 0x20 ADD SWAP1 JUMP JUMPDEST PUSH1 0x40 MLOAD DUP1 SWAP2 SUB SWAP1 LOG2 POP POP POP POP POP JUMP JUMPDEST PUSH1 0x2 SLOAD PUSH1 0x1 PUSH1 0x1 PUSH1 0xA0 SHL SUB AND CALLER EQ PUSH2 0xD62 JUMPI PUSH1 0x40 MLOAD PUSH3 0x461BCD PUSH1 0xE5 SHL DUP2 MSTORE PUSH1 0x4 ADD PUSH2 0x5FC SWAP1 PUSH2 0x1650 JUMP JUMPDEST PUSH2 0xD72 PUSH1 0x60 DUP3 ADD PUSH1 0x40 DUP4 ADD PUSH2 0x1377 JUMP JUMPDEST PUSH1 0x1 PUSH1 0x1 PUSH1 0xA0 SHL SUB DUP2 AND PUSH2 0xDD3 JUMPI PUSH1 0x40 MLOAD PUSH3 0x461BCD PUSH1 0xE5 SHL DUP2 MSTORE PUSH1 0x20 PUSH1 0x4 DUP3 ADD MSTORE PUSH1 0x22 PUSH1 0x24 DUP3 ADD MSTORE PUSH32 0x54686520616464726573732063616E6E6F742062652061203020616464726573 PUSH1 0x44 DUP3 ADD MSTORE PUSH2 0x7321 PUSH1 0xF0 SHL PUSH1 0x64 DUP3 ADD MSTORE PUSH1 0x84 ADD PUSH2 0x5FC JUMP JUMPDEST PUSH2 0xDE3 PUSH1 0x60 DUP4 ADD PUSH1 0x40 DUP5 ADD PUSH2 0x1377 JUMP JUMPDEST PUSH1 0x1 PUSH1 0x1 PUSH1 0xA0 SHL SUB DUP2 DUP2 AND PUSH1 0x0 SWAP1 DUP2 MSTORE PUSH1 0x7 PUSH1 0x20 MSTORE PUSH1 0x40 SWAP1 KECCAK256 PUSH1 0x1 ADD SLOAD PUSH2 0x100 SWAP1 DIV AND ISZERO PUSH2 0xE6A JUMPI PUSH1 0x40 MLOAD PUSH3 0x461BCD PUSH1 0xE5 SHL DUP2 MSTORE PUSH1 0x20 PUSH1 0x4 DUP3 ADD MSTORE PUSH1 0x2E PUSH1 0x24 DUP3 ADD MSTORE PUSH32 0x41207061727469636970616E7420776974682074686973206164647265737320 PUSH1 0x44 DUP3 ADD MSTORE PUSH14 0x65786973747320616C7265616479 PUSH1 0x90 SHL PUSH1 0x64 DUP3 ADD MSTORE PUSH1 0x84 ADD PUSH2 0x5FC JUMP JUMPDEST DUP3 PUSH1 0x7 PUSH1 0x0 PUSH2 0xE7F PUSH1 0x60 DUP5 ADD PUSH1 0x40 DUP6 ADD PUSH2 0x1377 JUMP JUMPDEST PUSH1 0x1 PUSH1 0x1 PUSH1 0xA0 SHL SUB AND DUP2 MSTORE PUSH1 0x20 DUP2 ADD SWAP2 SWAP1 SWAP2 MSTORE PUSH1 0x40 ADD PUSH1 0x0 KECCAK256 PUSH2 0xEA2 DUP3 DUP3 PUSH2 0x19EB JUMP JUMPDEST SWAP1 POP POP PUSH32 0xEF9377C241485790A66C08BE6E52DFF1AD726099E0467FB606578787DE7941E3 DUP4 PUSH1 0x40 MLOAD PUSH2 0xA67 SWAP2 SWAP1 PUSH2 0x16E9 JUMP JUMPDEST PUSH1 0x2 SLOAD PUSH1 0x1 PUSH1 0x1 PUSH1 0xA0 SHL SUB AND CALLER EQ DUP1 PUSH2 0xEF1 JUMPI POP PUSH2 0xEF1 CALLER PUSH2 0x41C JUMP JUMPDEST PUSH2 0xF3D JUMPI PUSH1 0x40 MLOAD PUSH3 0x461BCD PUSH1 0xE5 SHL DUP2 MSTORE PUSH1 0x20 PUSH1 0x4 DUP3 ADD MSTORE PUSH1 0x1E PUSH1 0x24 DUP3 ADD MSTORE PUSH32 0x4D73672E73656E646572206973206E6F74206C6162206F722061646D696E0000 PUSH1 0x44 DUP3 ADD MSTORE PUSH1 0x64 ADD PUSH2 0x5FC JUMP JUMPDEST PUSH1 0x40 DUP1 MLOAD DUP1 DUP3 ADD DUP3 MSTORE DUP3 ISZERO ISZERO DUP1 DUP3 MSTORE TIMESTAMP PUSH1 0x20 DUP1 DUP5 ADD DUP3 DUP2 MSTORE PUSH1 0x0 DUP9 DUP2 MSTORE PUSH1 0x6 SWAP1 SWAP3 MSTORE DUP6 DUP3 KECCAK256 SWAP5 MLOAD DUP6 SLOAD PUSH1 0xFF NOT AND SWAP1 ISZERO ISZERO OR DUP6 SSTORE MLOAD PUSH1 0x1 SWAP1 SWAP5 ADD SWAP4 SWAP1 SWAP4 SSTORE SWAP3 MLOAD SWAP1 SWAP2 DUP6 SWAP2 PUSH32 0xF77D5F9755B6151104D42D1008BF3453A129D0642C72A499F7B38CB68416A619 SWAP2 SWAP1 LOG4 POP POP JUMP JUMPDEST PUSH1 0x2 SLOAD PUSH1 0x1 PUSH1 0x1 PUSH1 0xA0 SHL SUB AND CALLER EQ DUP1 PUSH2 0xFC5 JUMPI POP PUSH2 0xFC5 CALLER PUSH2 0x466 JUMP JUMPDEST PUSH2 0x1011 JUMPI PUSH1 0x40 MLOAD PUSH3 0x461BCD PUSH1 0xE5 SHL DUP2 MSTORE PUSH1 0x20 PUSH1 0x4 DUP3 ADD DUP2 SWAP1 MSTORE PUSH1 0x24 DUP3 ADD MSTORE PUSH32 0x4D73672E73656E646572206973206E6F74206261736963206F722061646D696E PUSH1 0x44 DUP3 ADD MSTORE PUSH1 0x64 ADD PUSH2 0x5FC JUMP JUMPDEST PUSH1 0x0 DUP3 DUP2 MSTORE PUSH1 0x6 PUSH1 0x20 MSTORE PUSH1 0x40 SWAP1 KECCAK256 PUSH1 0x3 ADD SLOAD DUP3 SWAP1 PUSH2 0x1087 JUMPI PUSH1 0x40 MLOAD PUSH3 0x461BCD PUSH1 0xE5 SHL DUP2 MSTORE PUSH1 0x20 PUSH1 0x4 DUP3 ADD MSTORE PUSH1 0x2D PUSH1 0x24 DUP3 ADD MSTORE PUSH32 0x546865206C6F7420776974682074686520676976656E206E756D62657220646F PUSH1 0x44 DUP3 ADD MSTORE PUSH13 0x6573206E6F7420657869737421 PUSH1 0x98 SHL PUSH1 0x64 DUP3 ADD MSTORE PUSH1 0x84 ADD PUSH2 0x5FC JUMP JUMPDEST PUSH1 0x1 PUSH1 0x0 DUP1 DUP3 DUP3 SLOAD PUSH2 0x1099 SWAP2 SWAP1 PUSH2 0x186A JUMP JUMPDEST SWAP1 SWAP2 SSTORE POP POP PUSH1 0x40 DUP1 MLOAD PUSH1 0x80 DUP2 ADD DUP3 MSTORE CALLER DUP2 MSTORE PUSH1 0x0 DUP6 DUP2 MSTORE PUSH1 0x6 PUSH1 0x20 SWAP1 DUP2 MSTORE SWAP1 DUP4 SWAP1 KECCAK256 PUSH1 0x2 ADD SLOAD SWAP1 DUP3 ADD MSTORE TIMESTAMP SWAP2 DUP2 ADD SWAP2 SWAP1 SWAP2 MSTORE PUSH1 0x60 DUP2 ADD PUSH2 0x10D8 DUP5 PUSH2 0x189B JUMP JUMPDEST SWAP1 MSTORE PUSH1 0x0 DUP1 SLOAD DUP2 MSTORE PUSH1 0x5 PUSH1 0x20 SWAP1 DUP2 MSTORE PUSH1 0x40 SWAP2 DUP3 SWAP1 KECCAK256 DUP4 MLOAD DUP2 SLOAD PUSH1 0x1 PUSH1 0x1 PUSH1 0xA0 SHL SUB NOT AND PUSH1 0x1 PUSH1 0x1 PUSH1 0xA0 SHL SUB SWAP1 SWAP2 AND OR DUP2 SSTORE DUP4 DUP3 ADD MLOAD PUSH1 0x1 DUP3 ADD SSTORE SWAP2 DUP4 ADD MLOAD PUSH1 0x2 DUP4 ADD SSTORE PUSH1 0x60 DUP4 ADD MLOAD DUP1 MLOAD DUP1 MLOAD SWAP2 SWAP3 PUSH1 0x3 DUP6 ADD SWAP3 PUSH2 0x1138 SWAP3 DUP5 SWAP3 ADD SWAP1 PUSH2 0x11EB JUMP JUMPDEST POP PUSH1 0x20 DUP3 DUP2 ADD MLOAD DUP1 MLOAD PUSH2 0x1151 SWAP3 PUSH1 0x1 DUP6 ADD SWAP3 ADD SWAP1 PUSH2 0x11EB JUMP JUMPDEST POP POP PUSH1 0x0 DUP1 SLOAD DUP8 DUP3 MSTORE PUSH1 0x6 PUSH1 0x20 MSTORE PUSH1 0x40 SWAP2 DUP3 SWAP1 KECCAK256 PUSH1 0x2 ADD DUP2 SWAP1 SSTORE SWAP1 MLOAD SWAP1 SWAP4 POP PUSH32 0xEC445C04D22149C0897018B599BFBFFBBCF13B30A4DA88D37E30EE6DF86D6B24 SWAP3 POP PUSH2 0x11A1 SWAP2 POP TIMESTAMP DUP2 MSTORE PUSH1 0x20 ADD SWAP1 JUMP JUMPDEST PUSH1 0x40 MLOAD DUP1 SWAP2 SUB SWAP1 LOG2 POP POP POP JUMP JUMPDEST POP DUP1 SLOAD PUSH2 0x11BA SWAP1 PUSH2 0x191E JUMP JUMPDEST PUSH1 0x0 DUP3 SSTORE DUP1 PUSH1 0x1F LT PUSH2 0x11CA JUMPI POP POP JUMP JUMPDEST PUSH1 0x1F ADD PUSH1 0x20 SWAP1 DIV SWAP1 PUSH1 0x0 MSTORE PUSH1 0x20 PUSH1 0x0 KECCAK256 SWAP1 DUP2 ADD SWAP1 PUSH2 0x11E8 SWAP2 SWAP1 PUSH2 0x12A9 JUMP JUMPDEST POP JUMP JUMPDEST DUP3 DUP1 SLOAD PUSH2 0x11F7 SWAP1 PUSH2 0x191E JUMP JUMPDEST SWAP1 PUSH1 0x0 MSTORE PUSH1 0x20 PUSH1 0x0 KECCAK256 SWAP1 PUSH1 0x1F ADD PUSH1 0x20 SWAP1 DIV DUP2 ADD SWAP3 DUP3 PUSH2 0x1219 JUMPI PUSH1 0x0 DUP6 SSTORE PUSH2 0x125F JUMP JUMPDEST DUP3 PUSH1 0x1F LT PUSH2 0x1232 JUMPI DUP1 MLOAD PUSH1 0xFF NOT AND DUP4 DUP1 ADD OR DUP6 SSTORE PUSH2 0x125F JUMP JUMPDEST DUP3 DUP1 ADD PUSH1 0x1 ADD DUP6 SSTORE DUP3 ISZERO PUSH2 0x125F JUMPI SWAP2 DUP3 ADD JUMPDEST DUP3 DUP2 GT ISZERO PUSH2 0x125F JUMPI DUP3 MLOAD DUP3 SSTORE SWAP2 PUSH1 0x20 ADD SWAP2 SWAP1 PUSH1 0x1 ADD SWAP1 PUSH2 0x1244 JUMP JUMPDEST POP PUSH2 0x126B SWAP3 SWAP2 POP PUSH2 0x12A9 JUMP JUMPDEST POP SWAP1 JUMP JUMPDEST DUP3 DUP1 SLOAD DUP3 DUP3 SSTORE SWAP1 PUSH1 0x0 MSTORE PUSH1 0x20 PUSH1 0x0 KECCAK256 SWAP1 DUP2 ADD SWAP3 DUP3 ISZERO PUSH2 0x125F JUMPI SWAP2 PUSH1 0x20 MUL DUP3 ADD DUP3 DUP2 GT ISZERO PUSH2 0x125F JUMPI DUP3 MLOAD DUP3 SSTORE SWAP2 PUSH1 0x20 ADD SWAP2 SWAP1 PUSH1 0x1 ADD SWAP1 PUSH2 0x1244 JUMP JUMPDEST JUMPDEST DUP1 DUP3 GT ISZERO PUSH2 0x126B JUMPI PUSH1 0x0 DUP2 SSTORE PUSH1 0x1 ADD PUSH2 0x12AA JUMP JUMPDEST DUP1 CALLDATALOAD PUSH2 0x12C9 DUP2 PUSH2 0x1B68 JUMP JUMPDEST SWAP2 SWAP1 POP JUMP JUMPDEST DUP1 CALLDATALOAD PUSH2 0x12C9 DUP2 PUSH2 0x1B7D JUMP JUMPDEST PUSH1 0x0 DUP3 PUSH1 0x1F DUP4 ADD SLT PUSH2 0x12E9 JUMPI DUP1 DUP2 REVERT JUMPDEST DUP2 CALLDATALOAD PUSH8 0xFFFFFFFFFFFFFFFF DUP1 DUP3 GT ISZERO PUSH2 0x1304 JUMPI PUSH2 0x1304 PUSH2 0x1984 JUMP JUMPDEST PUSH1 0x40 MLOAD PUSH1 0x1F DUP4 ADD PUSH1 0x1F NOT SWAP1 DUP2 AND PUSH1 0x3F ADD AND DUP2 ADD SWAP1 DUP3 DUP3 GT DUP2 DUP4 LT OR ISZERO PUSH2 0x132C JUMPI PUSH2 0x132C PUSH2 0x1984 JUMP JUMPDEST DUP2 PUSH1 0x40 MSTORE DUP4 DUP2 MSTORE DUP7 PUSH1 0x20 DUP6 DUP9 ADD ADD GT ISZERO PUSH2 0x1344 JUMPI DUP5 DUP6 REVERT JUMPDEST DUP4 PUSH1 0x20 DUP8 ADD PUSH1 0x20 DUP4 ADD CALLDATACOPY SWAP3 DUP4 ADD PUSH1 0x20 ADD SWAP4 SWAP1 SWAP4 MSTORE POP SWAP4 SWAP3 POP POP POP JUMP JUMPDEST PUSH1 0x0 PUSH1 0x40 DUP3 DUP5 SUB SLT ISZERO PUSH2 0x1371 JUMPI DUP1 DUP2 REVERT JUMPDEST POP SWAP2 SWAP1 POP JUMP JUMPDEST PUSH1 0x0 PUSH1 0x20 DUP3 DUP5 SUB SLT ISZERO PUSH2 0x1388 JUMPI DUP1 DUP2 REVERT JUMPDEST DUP2 CALLDATALOAD PUSH2 0x1393 DUP2 PUSH2 0x1B68 JUMP JUMPDEST SWAP4 SWAP3 POP POP POP JUMP JUMPDEST PUSH1 0x0 DUP1 PUSH1 0x40 DUP4 DUP6 SUB SLT ISZERO PUSH2 0x13AC JUMPI DUP1 DUP2 REVERT JUMPDEST DUP3 CALLDATALOAD PUSH2 0x13B7 DUP2 PUSH2 0x1B68 JUMP JUMPDEST SWAP2 POP PUSH1 0x20 DUP4 ADD CALLDATALOAD PUSH2 0x13C7 DUP2 PUSH2 0x1B7D JUMP JUMPDEST DUP1 SWAP2 POP POP SWAP3 POP SWAP3 SWAP1 POP JUMP JUMPDEST PUSH1 0x0 DUP1 PUSH1 0x20 DUP4 DUP6 SUB SLT ISZERO PUSH2 0x13E4 JUMPI DUP2 DUP3 REVERT JUMPDEST DUP3 CALLDATALOAD PUSH8 0xFFFFFFFFFFFFFFFF DUP1 DUP3 GT ISZERO PUSH2 0x13FB JUMPI DUP4 DUP5 REVERT JUMPDEST DUP2 DUP6 ADD SWAP2 POP DUP6 PUSH1 0x1F DUP4 ADD SLT PUSH2 0x140E JUMPI DUP4 DUP5 REVERT JUMPDEST DUP2 CALLDATALOAD DUP2 DUP2 GT ISZERO PUSH2 0x141C JUMPI DUP5 DUP6 REVERT JUMPDEST DUP7 PUSH1 0x20 DUP3 PUSH1 0x5 SHL DUP6 ADD ADD GT ISZERO PUSH2 0x1430 JUMPI DUP5 DUP6 REVERT JUMPDEST PUSH1 0x20 SWAP3 SWAP1 SWAP3 ADD SWAP7 SWAP2 SWAP6 POP SWAP1 SWAP4 POP POP POP POP JUMP JUMPDEST PUSH1 0x0 PUSH1 0x20 DUP3 DUP5 SUB SLT ISZERO PUSH2 0x1453 JUMPI DUP1 DUP2 REVERT JUMPDEST DUP2 CALLDATALOAD PUSH8 0xFFFFFFFFFFFFFFFF DUP2 GT ISZERO PUSH2 0x1469 JUMPI DUP2 DUP3 REVERT JUMPDEST PUSH2 0x1475 DUP5 DUP3 DUP6 ADD PUSH2 0x1360 JUMP JUMPDEST SWAP5 SWAP4 POP POP POP POP JUMP JUMPDEST PUSH1 0x0 PUSH1 0x20 DUP3 DUP5 SUB SLT ISZERO PUSH2 0x148E JUMPI DUP1 DUP2 REVERT JUMPDEST DUP2 CALLDATALOAD PUSH8 0xFFFFFFFFFFFFFFFF DUP2 GT ISZERO PUSH2 0x14A4 JUMPI DUP2 DUP3 REVERT JUMPDEST DUP3 ADD PUSH1 0x60 DUP2 DUP6 SUB SLT ISZERO PUSH2 0x1393 JUMPI DUP2 DUP3 REVERT JUMPDEST PUSH1 0x0 PUSH1 0x20 DUP3 DUP5 SUB SLT ISZERO PUSH2 0x14C6 JUMPI DUP1 DUP2 REVERT JUMPDEST POP CALLDATALOAD SWAP2 SWAP1 POP JUMP JUMPDEST PUSH1 0x0 DUP1 PUSH1 0x40 DUP4 DUP6 SUB SLT ISZERO PUSH2 0x14DF JUMPI DUP2 DUP3 REVERT JUMPDEST DUP3 CALLDATALOAD SWAP2 POP PUSH1 0x20 DUP4 ADD CALLDATALOAD DUP1 ISZERO ISZERO DUP2 EQ PUSH2 0x13C7 JUMPI DUP2 DUP3 REVERT JUMPDEST PUSH1 0x0 DUP1 PUSH1 0x40 DUP4 DUP6 SUB SLT ISZERO PUSH2 0x1507 JUMPI DUP2 DUP3 REVERT JUMPDEST DUP3 CALLDATALOAD SWAP2 POP PUSH1 0x20 DUP4 ADD CALLDATALOAD PUSH8 0xFFFFFFFFFFFFFFFF DUP2 GT ISZERO PUSH2 0x1524 JUMPI DUP2 DUP3 REVERT JUMPDEST PUSH2 0x1530 DUP6 DUP3 DUP7 ADD PUSH2 0x1360 JUMP JUMPDEST SWAP2 POP POP SWAP3 POP SWAP3 SWAP1 POP JUMP JUMPDEST PUSH1 0x4 DUP2 LT PUSH2 0x1558 JUMPI PUSH4 0x4E487B71 PUSH1 0xE0 SHL PUSH1 0x0 MSTORE PUSH1 0x21 PUSH1 0x4 MSTORE PUSH1 0x24 PUSH1 0x0 REVERT JUMPDEST SWAP1 MSTORE JUMP JUMPDEST PUSH1 0x0 DUP2 MLOAD DUP1 DUP5 MSTORE DUP2 JUMPDEST DUP2 DUP2 LT ISZERO PUSH2 0x1581 JUMPI PUSH1 0x20 DUP2 DUP6 ADD DUP2 ADD MLOAD DUP7 DUP4 ADD DUP3 ADD MSTORE ADD PUSH2 0x1565 JUMP JUMPDEST DUP2 DUP2 GT ISZERO PUSH2 0x1592 JUMPI DUP3 PUSH1 0x20 DUP4 DUP8 ADD ADD MSTORE JUMPDEST POP PUSH1 0x1F ADD PUSH1 0x1F NOT AND SWAP3 SWAP1 SWAP3 ADD PUSH1 0x20 ADD SWAP3 SWAP2 POP POP JUMP JUMPDEST PUSH1 0x0 DUP2 MLOAD PUSH1 0x40 DUP5 MSTORE PUSH2 0x15BC PUSH1 0x40 DUP6 ADD DUP3 PUSH2 0x155C JUMP JUMPDEST SWAP1 POP PUSH1 0x20 DUP4 ADD MLOAD DUP5 DUP3 SUB PUSH1 0x20 DUP7 ADD MSTORE PUSH2 0x15D5 DUP3 DUP3 PUSH2 0x155C JUMP JUMPDEST SWAP6 SWAP5 POP POP POP POP POP JUMP JUMPDEST PUSH1 0x1 DUP1 PUSH1 0xA0 SHL SUB DUP6 AND DUP2 MSTORE DUP4 PUSH1 0x20 DUP3 ADD MSTORE DUP3 PUSH1 0x40 DUP3 ADD MSTORE PUSH1 0x80 PUSH1 0x60 DUP3 ADD MSTORE PUSH1 0x0 PUSH2 0x160B PUSH1 0x80 DUP4 ADD DUP5 PUSH2 0x15A7 JUMP JUMPDEST SWAP7 SWAP6 POP POP POP POP POP POP JUMP JUMPDEST PUSH1 0x60 DUP2 MSTORE PUSH1 0x0 PUSH2 0x1628 PUSH1 0x60 DUP4 ADD DUP7 PUSH2 0x155C JUMP JUMPDEST SWAP1 POP PUSH2 0x1637 PUSH1 0x20 DUP4 ADD DUP6 PUSH2 0x153A JUMP JUMPDEST PUSH1 0x1 PUSH1 0x1 PUSH1 0xA0 SHL SUB SWAP3 SWAP1 SWAP3 AND PUSH1 0x40 SWAP2 SWAP1 SWAP2 ADD MSTORE SWAP3 SWAP2 POP POP JUMP JUMPDEST PUSH1 0x20 DUP1 DUP3 MSTORE PUSH1 0x2B SWAP1 DUP3 ADD MSTORE PUSH32 0x546869732066756E6374696F6E206973206F6E6C792063616C6C61626C652062 PUSH1 0x40 DUP3 ADD MSTORE PUSH11 0x7920616E2061646D696E21 PUSH1 0xA8 SHL PUSH1 0x60 DUP3 ADD MSTORE PUSH1 0x80 ADD SWAP1 JUMP JUMPDEST PUSH1 0x20 DUP1 DUP3 MSTORE PUSH1 0x2E SWAP1 DUP3 ADD MSTORE PUSH32 0x41207061727469636970616E7420776974682074686973206164647265737320 PUSH1 0x40 DUP3 ADD MSTORE PUSH14 0x191BD95CC81B9BDD08195E1A5CDD PUSH1 0x92 SHL PUSH1 0x60 DUP3 ADD MSTORE PUSH1 0x80 ADD SWAP1 JUMP JUMPDEST PUSH1 0x20 DUP2 MSTORE PUSH1 0x0 DUP3 CALLDATALOAD PUSH1 0x1E NOT DUP5 CALLDATASIZE SUB ADD DUP2 SLT PUSH2 0x1702 JUMPI DUP2 DUP3 REVERT JUMPDEST DUP4 ADD DUP1 CALLDATALOAD PUSH8 0xFFFFFFFFFFFFFFFF DUP2 GT ISZERO PUSH2 0x171A JUMPI DUP3 DUP4 REVERT JUMPDEST DUP1 CALLDATASIZE SUB DUP6 SGT ISZERO PUSH2 0x1728 JUMPI DUP3 DUP4 REVERT JUMPDEST PUSH1 0x60 PUSH1 0x20 DUP6 ADD MSTORE DUP1 PUSH1 0x80 DUP6 ADD MSTORE DUP1 PUSH1 0x20 DUP4 ADD PUSH1 0xA0 DUP7 ADD CALLDATACOPY DUP3 PUSH1 0xA0 DUP3 DUP7 ADD ADD MSTORE PUSH2 0x1753 PUSH1 0x20 DUP7 ADD PUSH2 0x12CE JUMP JUMPDEST SWAP2 POP PUSH2 0x1762 PUSH1 0x40 DUP6 ADD DUP4 PUSH2 0x153A JUMP JUMPDEST PUSH2 0x176E PUSH1 0x40 DUP7 ADD PUSH2 0x12BE JUMP JUMPDEST PUSH1 0x1 PUSH1 0x1 PUSH1 0xA0 SHL SUB DUP2 AND PUSH1 0x60 DUP7 ADD MSTORE SWAP2 POP PUSH1 0x1F ADD PUSH1 0x1F NOT AND SWAP3 SWAP1 SWAP3 ADD PUSH1 0xA0 ADD SWAP4 SWAP3 POP POP POP JUMP JUMPDEST PUSH1 0x0 PUSH1 0x20 DUP1 DUP4 MSTORE PUSH1 0x60 DUP2 DUP5 ADD MSTORE DUP2 DUP5 SLOAD PUSH2 0x17AD DUP2 PUSH2 0x191E JUMP JUMPDEST DUP1 PUSH1 0x80 DUP8 ADD MSTORE PUSH1 0xA0 PUSH1 0x1 DUP1 DUP5 AND PUSH1 0x0 DUP2 EQ PUSH2 0x17CF JUMPI PUSH1 0x1 DUP2 EQ PUSH2 0x17E3 JUMPI PUSH2 0x180E JUMP JUMPDEST PUSH1 0xFF NOT DUP6 AND DUP10 DUP5 ADD MSTORE PUSH1 0xC0 DUP10 ADD SWAP6 POP PUSH2 0x180E JUMP JUMPDEST DUP10 DUP9 MSTORE DUP7 DUP9 KECCAK256 DUP9 JUMPDEST DUP6 DUP2 LT ISZERO PUSH2 0x1806 JUMPI DUP2 SLOAD DUP12 DUP3 ADD DUP7 ADD MSTORE SWAP1 DUP4 ADD SWAP1 DUP9 ADD PUSH2 0x17EB JUMP JUMPDEST DUP11 ADD DUP5 ADD SWAP7 POP POP JUMPDEST POP DUP9 ADD SLOAD SWAP5 POP PUSH2 0x1828 SWAP3 POP POP POP PUSH1 0x40 DUP6 ADD PUSH1 0xFF DUP5 AND PUSH2 0x153A JUMP JUMPDEST PUSH1 0x1 PUSH1 0x1 PUSH1 0xA0 SHL SUB PUSH1 0x8 DUP4 SWAP1 SHR AND PUSH1 0x60 DUP6 ADD MSTORE PUSH2 0x1475 JUMP JUMPDEST DUP4 DUP2 MSTORE PUSH1 0x1 PUSH1 0x1 PUSH1 0xA0 SHL SUB DUP4 AND PUSH1 0x20 DUP3 ADD MSTORE PUSH1 0x60 PUSH1 0x40 DUP3 ADD DUP2 SWAP1 MSTORE PUSH1 0x0 SWAP1 PUSH2 0x15D5 SWAP1 DUP4 ADD DUP5 PUSH2 0x15A7 JUMP JUMPDEST PUSH1 0x0 DUP3 NOT DUP3 GT ISZERO PUSH2 0x187D JUMPI PUSH2 0x187D PUSH2 0x196E JUMP JUMPDEST POP ADD SWAP1 JUMP JUMPDEST JUMPDEST DUP2 DUP2 LT ISZERO PUSH2 0x1897 JUMPI PUSH1 0x0 DUP2 SSTORE PUSH1 0x1 ADD PUSH2 0x1883 JUMP JUMPDEST POP POP JUMP JUMPDEST PUSH1 0x0 PUSH1 0x40 DUP3 CALLDATASIZE SUB SLT ISZERO PUSH2 0x18AC JUMPI DUP1 DUP2 REVERT JUMPDEST PUSH1 0x40 MLOAD PUSH1 0x40 DUP2 ADD PUSH8 0xFFFFFFFFFFFFFFFF DUP3 DUP3 LT DUP2 DUP4 GT OR ISZERO PUSH2 0x18D0 JUMPI PUSH2 0x18D0 PUSH2 0x1984 JUMP JUMPDEST DUP2 PUSH1 0x40 MSTORE DUP5 CALLDATALOAD SWAP2 POP DUP1 DUP3 GT ISZERO PUSH2 0x18E4 JUMPI DUP4 DUP5 REVERT JUMPDEST PUSH2 0x18F0 CALLDATASIZE DUP4 DUP8 ADD PUSH2 0x12D9 JUMP JUMPDEST DUP4 MSTORE PUSH1 0x20 DUP6 ADD CALLDATALOAD SWAP2 POP DUP1 DUP3 GT ISZERO PUSH2 0x1905 JUMPI DUP4 DUP5 REVERT JUMPDEST POP PUSH2 0x1912 CALLDATASIZE DUP3 DUP7 ADD PUSH2 0x12D9 JUMP JUMPDEST PUSH1 0x20 DUP4 ADD MSTORE POP SWAP3 SWAP2 POP POP JUMP JUMPDEST PUSH1 0x1 DUP2 DUP2 SHR SWAP1 DUP3 AND DUP1 PUSH2 0x1932 JUMPI PUSH1 0x7F DUP3 AND SWAP2 POP JUMPDEST PUSH1 0x20 DUP3 LT DUP2 EQ ISZERO PUSH2 0x1371 JUMPI PUSH4 0x4E487B71 PUSH1 0xE0 SHL PUSH1 0x0 MSTORE PUSH1 0x22 PUSH1 0x4 MSTORE PUSH1 0x24 PUSH1 0x0 REVERT JUMPDEST PUSH1 0x0 PUSH1 0x0 NOT DUP3 EQ ISZERO PUSH2 0x1967 JUMPI PUSH2 0x1967 PUSH2 0x196E JUMP JUMPDEST POP PUSH1 0x1 ADD SWAP1 JUMP JUMPDEST PUSH4 0x4E487B71 PUSH1 0xE0 SHL PUSH1 0x0 MSTORE PUSH1 0x11 PUSH1 0x4 MSTORE PUSH1 0x24 PUSH1 0x0 REVERT JUMPDEST PUSH4 0x4E487B71 PUSH1 0xE0 SHL PUSH1 0x0 MSTORE PUSH1 0x41 PUSH1 0x4 MSTORE PUSH1 0x24 PUSH1 0x0 REVERT JUMPDEST PUSH1 0x0 DUP2 CALLDATALOAD PUSH2 0x19A7 DUP2 PUSH2 0x1B68 JUMP JUMPDEST SWAP3 SWAP2 POP POP JUMP JUMPDEST PUSH1 0x0 DUP2 CALLDATALOAD PUSH2 0x19A7 DUP2 PUSH2 0x1B7D JUMP JUMPDEST PUSH1 0x4 DUP3 LT PUSH2 0x19D8 JUMPI PUSH4 0x4E487B71 PUSH1 0xE0 SHL PUSH1 0x0 MSTORE PUSH1 0x21 PUSH1 0x4 MSTORE PUSH1 0x24 PUSH1 0x0 REVERT JUMPDEST PUSH1 0xFF NOT DUP2 SLOAD AND PUSH1 0xFF DUP4 AND DUP2 OR DUP3 SSTORE POP POP POP JUMP JUMPDEST DUP2 CALLDATALOAD PUSH1 0x1E NOT DUP4 CALLDATASIZE SUB ADD DUP2 SLT PUSH2 0x19FF JUMPI PUSH1 0x0 DUP1 REVERT JUMPDEST DUP3 ADD DUP1 CALLDATALOAD PUSH8 0xFFFFFFFFFFFFFFFF DUP2 GT ISZERO PUSH2 0x1A18 JUMPI PUSH1 0x0 DUP1 REVERT JUMPDEST PUSH1 0x20 DUP2 CALLDATASIZE SUB DUP2 DUP5 ADD SGT ISZERO PUSH2 0x1A2B JUMPI PUSH1 0x0 DUP1 REVERT JUMPDEST PUSH2 0x1A35 DUP5 SLOAD PUSH2 0x191E JUMP JUMPDEST PUSH1 0x0 DUP1 PUSH1 0x1F DUP6 GT PUSH1 0x1F DUP5 GT DUP2 DUP2 OR ISZERO PUSH2 0x1A54 JUMPI PUSH1 0x0 DUP10 DUP2 MSTORE PUSH1 0x20 SWAP1 KECCAK256 SWAP3 POP JUMPDEST DUP1 ISZERO PUSH2 0x1A82 JUMPI PUSH1 0x1F DUP8 ADD PUSH1 0x5 SHR DUP4 ADD DUP7 DUP9 LT ISZERO PUSH2 0x1A6E JUMPI POP DUP3 JUMPDEST PUSH2 0x1A80 PUSH1 0x1F DUP8 ADD PUSH1 0x5 SHR DUP6 ADD DUP3 PUSH2 0x1882 JUMP JUMPDEST POP JUMPDEST POP DUP1 PUSH1 0x1 DUP2 EQ PUSH2 0x1AB8 JUMPI PUSH1 0x0 SWAP5 POP DUP7 ISZERO PUSH2 0x1A9F JUMPI DUP6 DUP5 DUP10 ADD ADD CALLDATALOAD SWAP5 POP JUMPDEST PUSH1 0x1 DUP8 SWAP1 SHL PUSH1 0x0 NOT PUSH1 0x3 DUP10 SWAP1 SHL SHR NOT DUP7 AND OR DUP10 SSTORE PUSH2 0x1B0D JUMP JUMPDEST PUSH1 0x1F NOT DUP8 AND SWAP5 POP DUP3 DUP5 JUMPDEST DUP7 DUP2 LT ISZERO PUSH2 0x1AE3 JUMPI DUP10 DUP7 ADD DUP9 ADD CALLDATALOAD DUP3 SSTORE SWAP5 DUP8 ADD SWAP5 PUSH1 0x1 SWAP1 SWAP2 ADD SWAP1 DUP8 ADD PUSH2 0x1AC2 JUMP JUMPDEST POP DUP8 DUP7 LT ISZERO PUSH2 0x1B02 JUMPI PUSH1 0x0 NOT PUSH1 0xF8 DUP10 PUSH1 0x3 SHL AND SHR NOT DUP8 DUP7 DUP12 ADD ADD CALLDATALOAD AND DUP2 SSTORE JUMPDEST POP PUSH1 0x1 DUP8 PUSH1 0x1 SHL ADD DUP10 SSTORE JUMPDEST POP POP POP POP POP PUSH1 0x1 DUP5 ADD SWAP3 POP PUSH2 0x1B2C PUSH2 0x1B26 DUP3 DUP8 ADD PUSH2 0x19AD JUMP JUMPDEST DUP5 PUSH2 0x19BA JUMP JUMPDEST POP POP PUSH2 0x1B63 PUSH2 0x1B3D PUSH1 0x40 DUP6 ADD PUSH2 0x199A JUMP JUMPDEST DUP3 DUP1 SLOAD PUSH2 0x100 PUSH1 0x1 PUSH1 0xA8 SHL SUB NOT AND PUSH1 0x8 SWAP3 SWAP1 SWAP3 SHL PUSH2 0x100 PUSH1 0x1 PUSH1 0xA8 SHL SUB AND SWAP2 SWAP1 SWAP2 OR SWAP1 SSTORE JUMP JUMPDEST POP POP POP JUMP JUMPDEST PUSH1 0x1 PUSH1 0x1 PUSH1 0xA0 SHL SUB DUP2 AND DUP2 EQ PUSH2 0x11E8 JUMPI PUSH1 0x0 DUP1 REVERT JUMPDEST PUSH1 0x4 DUP2 LT PUSH2 0x11E8 JUMPI PUSH1 0x0 DUP1 REVERT INVALID LOG2 PUSH5 0x6970667358 0x22 SLT KECCAK256 MULMOD 0x21 JUMPI MSTORE 0x24 TIMESTAMP PUSH19 0x59D148893FE98163949A74CB598524F491E0BF 0xD 0x5D GASLIMIT 0xC1 PUSH21 0x2564736F6C63430008040033000000000000000000 "
        },
        "methodIdentifiers": {
          "addLabResult(uint256,bool)": "e7970342",
          "addLot(uint256[])": "cf23b377",
          "addMilkBatch((string,string))": "bab5e3d5",
          "addParticipant((string,uint8,address))": "dfc2e251",
          "addStep(uint256,(string,string))": "ef8fd516",
          "administrator()": "f53d0a8e",
          "changeParticipantRole(address,uint8)": "c0e04539",
          "isAdministrator(address)": "0a2eb301",
          "isBasicParticipant(address)": "2a83aada",
          "isLaboratory(address)": "27706584",
          "isMilkProducer(address)": "633342fe",
          "laboratory()": "79971266",
          "lots(uint256)": "f1648e84",
          "milkBatches(uint256)": "4e266aea",
          "participants(address)": "09e69ede",
          "removeParticipant(address)": "668a2001",
          "steps(uint256)": "7217e0b9",
          "totalBatches()": "69ff6abb",
          "totalLots()": "360f277b",
          "totalSteps()": "6931b3ae"
        }
      }
    }
  }
}